{
  "contractName": "Bridge",
  "abi": [
    {
      "constant": true,
      "inputs": [],
      "name": "status",
      "outputs": [
        {
          "name": "",
          "type": "uint8"
        }
      ],
      "payable": false,
      "stateMutability": "view",
      "type": "function"
    },
    {
      "constant": true,
      "inputs": [
        {
          "name": "",
          "type": "bytes32"
        }
      ],
      "name": "votes",
      "outputs": [
        {
          "name": "",
          "type": "bool"
        }
      ],
      "payable": false,
      "stateMutability": "view",
      "type": "function"
    },
    {
      "constant": true,
      "inputs": [
        {
          "name": "",
          "type": "bytes32"
        }
      ],
      "name": "dbTransfer",
      "outputs": [
        {
          "name": "",
          "type": "bool"
        }
      ],
      "payable": false,
      "stateMutability": "view",
      "type": "function"
    },
    {
      "constant": true,
      "inputs": [],
      "name": "tokenContract",
      "outputs": [
        {
          "name": "",
          "type": "address"
        }
      ],
      "payable": false,
      "stateMutability": "view",
      "type": "function"
    },
    {
      "constant": true,
      "inputs": [],
      "name": "epoch",
      "outputs": [
        {
          "name": "",
          "type": "uint256"
        }
      ],
      "payable": false,
      "stateMutability": "view",
      "type": "function"
    },
    {
      "constant": true,
      "inputs": [
        {
          "name": "",
          "type": "bytes32"
        }
      ],
      "name": "votesCount",
      "outputs": [
        {
          "name": "",
          "type": "uint256"
        }
      ],
      "payable": false,
      "stateMutability": "view",
      "type": "function"
    },
    {
      "constant": true,
      "inputs": [],
      "name": "nextEpoch",
      "outputs": [
        {
          "name": "",
          "type": "uint256"
        }
      ],
      "payable": false,
      "stateMutability": "view",
      "type": "function"
    },
    {
      "constant": true,
      "inputs": [
        {
          "name": "",
          "type": "bytes32"
        }
      ],
      "name": "dbTransferCount",
      "outputs": [
        {
          "name": "",
          "type": "uint256"
        }
      ],
      "payable": false,
      "stateMutability": "view",
      "type": "function"
    },
    {
      "inputs": [
        {
          "name": "threshold",
          "type": "uint256"
        },
        {
          "name": "validators",
          "type": "address[]"
        },
        {
          "name": "_tokenContract",
          "type": "address"
        }
      ],
      "payable": false,
      "stateMutability": "nonpayable",
      "type": "constructor"
    },
    {
      "anonymous": false,
      "inputs": [
        {
          "indexed": false,
          "name": "value",
          "type": "uint256"
        }
      ],
      "name": "ExchangeRequest",
      "type": "event"
    },
    {
      "anonymous": false,
      "inputs": [
        {
          "indexed": true,
          "name": "oldEpoch",
          "type": "uint256"
        },
        {
          "indexed": true,
          "name": "newEpoch",
          "type": "uint256"
        }
      ],
      "name": "NewEpoch",
      "type": "event"
    },
    {
      "anonymous": false,
      "inputs": [
        {
          "indexed": true,
          "name": "epoch",
          "type": "uint256"
        }
      ],
      "name": "NewEpochCancelled",
      "type": "event"
    },
    {
      "anonymous": false,
      "inputs": [
        {
          "indexed": true,
          "name": "oldEpoch",
          "type": "uint256"
        },
        {
          "indexed": true,
          "name": "newEpoch",
          "type": "uint256"
        }
      ],
      "name": "NewFundsTransfer",
      "type": "event"
    },
    {
      "anonymous": false,
      "inputs": [
        {
          "indexed": true,
          "name": "epoch",
          "type": "uint256"
        },
        {
          "indexed": false,
          "name": "x",
          "type": "uint256"
        },
        {
          "indexed": false,
          "name": "y",
          "type": "uint256"
        }
      ],
      "name": "EpochStart",
      "type": "event"
    },
    {
      "constant": false,
      "inputs": [
        {
          "name": "value",
          "type": "uint256"
        }
      ],
      "name": "exchange",
      "outputs": [],
      "payable": false,
      "stateMutability": "nonpayable",
      "type": "function"
    },
    {
      "constant": false,
      "inputs": [
        {
          "name": "hash",
          "type": "bytes32"
        },
        {
          "name": "to",
          "type": "address"
        },
        {
          "name": "value",
          "type": "uint256"
        }
      ],
      "name": "transfer",
      "outputs": [],
      "payable": false,
      "stateMutability": "nonpayable",
      "type": "function"
    },
    {
      "constant": false,
      "inputs": [
        {
          "name": "x",
          "type": "uint256"
        },
        {
          "name": "y",
          "type": "uint256"
        }
      ],
      "name": "confirmKeygen",
      "outputs": [],
      "payable": false,
      "stateMutability": "nonpayable",
      "type": "function"
    },
    {
      "constant": false,
      "inputs": [],
      "name": "confirmFundsTransfer",
      "outputs": [],
      "payable": false,
      "stateMutability": "nonpayable",
      "type": "function"
    },
    {
      "constant": true,
      "inputs": [],
      "name": "getNextParties",
      "outputs": [
        {
          "name": "",
          "type": "uint256"
        }
      ],
      "payable": false,
      "stateMutability": "view",
      "type": "function"
    },
    {
      "constant": true,
      "inputs": [],
      "name": "getParties",
      "outputs": [
        {
          "name": "",
          "type": "uint256"
        }
      ],
      "payable": false,
      "stateMutability": "view",
      "type": "function"
    },
    {
      "constant": true,
      "inputs": [
        {
          "name": "_epoch",
          "type": "uint256"
        }
      ],
      "name": "getParties",
      "outputs": [
        {
          "name": "",
          "type": "uint256"
        }
      ],
      "payable": false,
      "stateMutability": "view",
      "type": "function"
    },
    {
      "constant": true,
      "inputs": [],
      "name": "getNextThreshold",
      "outputs": [
        {
          "name": "",
          "type": "uint256"
        }
      ],
      "payable": false,
      "stateMutability": "view",
      "type": "function"
    },
    {
      "constant": true,
      "inputs": [],
      "name": "getThreshold",
      "outputs": [
        {
          "name": "",
          "type": "uint256"
        }
      ],
      "payable": false,
      "stateMutability": "view",
      "type": "function"
    },
    {
      "constant": true,
      "inputs": [
        {
          "name": "_epoch",
          "type": "uint256"
        }
      ],
      "name": "getThreshold",
      "outputs": [
        {
          "name": "",
          "type": "uint256"
        }
      ],
      "payable": false,
      "stateMutability": "view",
      "type": "function"
    },
    {
      "constant": true,
      "inputs": [],
      "name": "getX",
      "outputs": [
        {
          "name": "",
          "type": "uint256"
        }
      ],
      "payable": false,
      "stateMutability": "view",
      "type": "function"
    },
    {
      "constant": true,
      "inputs": [],
      "name": "getY",
      "outputs": [
        {
          "name": "",
          "type": "uint256"
        }
      ],
      "payable": false,
      "stateMutability": "view",
      "type": "function"
    },
    {
      "constant": true,
      "inputs": [],
      "name": "getPartyId",
      "outputs": [
        {
          "name": "",
          "type": "uint256"
        }
      ],
      "payable": false,
      "stateMutability": "view",
      "type": "function"
    },
    {
      "constant": true,
      "inputs": [
        {
          "name": "a",
          "type": "address"
        }
      ],
      "name": "getNextPartyId",
      "outputs": [
        {
          "name": "",
          "type": "uint256"
        }
      ],
      "payable": false,
      "stateMutability": "view",
      "type": "function"
    },
    {
      "constant": true,
      "inputs": [],
      "name": "getValidators",
      "outputs": [
        {
          "name": "",
          "type": "address[]"
        }
      ],
      "payable": false,
      "stateMutability": "view",
      "type": "function"
    },
    {
      "constant": true,
      "inputs": [],
      "name": "getNextValidators",
      "outputs": [
        {
          "name": "",
          "type": "address[]"
        }
      ],
      "payable": false,
      "stateMutability": "view",
      "type": "function"
    },
    {
      "constant": false,
      "inputs": [],
      "name": "startVoting",
      "outputs": [],
      "payable": false,
      "stateMutability": "nonpayable",
      "type": "function"
    },
    {
      "constant": false,
      "inputs": [
        {
          "name": "validator",
          "type": "address"
        }
      ],
      "name": "voteAddValidator",
      "outputs": [],
      "payable": false,
      "stateMutability": "nonpayable",
      "type": "function"
    },
    {
      "constant": false,
      "inputs": [
        {
          "name": "validator",
          "type": "address"
        }
      ],
      "name": "voteRemoveValidator",
      "outputs": [],
      "payable": false,
      "stateMutability": "nonpayable",
      "type": "function"
    },
    {
      "constant": false,
      "inputs": [
        {
          "name": "threshold",
          "type": "uint256"
        }
      ],
      "name": "voteChangeThreshold",
      "outputs": [],
      "payable": false,
      "stateMutability": "nonpayable",
      "type": "function"
    },
    {
      "constant": false,
      "inputs": [],
      "name": "voteStartKeygen",
      "outputs": [],
      "payable": false,
      "stateMutability": "nonpayable",
      "type": "function"
    },
    {
      "constant": false,
      "inputs": [],
      "name": "voteCancelKeygen",
      "outputs": [],
      "payable": false,
      "stateMutability": "nonpayable",
      "type": "function"
    }
  ],
  "bytecode": "0x60806040523480156200001157600080fd5b5060405162001b3438038062001b34833981810160405260608110156200003757600080fd5b8151602083018051919392830192916401000000008111156200005957600080fd5b820160208101848111156200006d57600080fd5b81518560208202830111640100000000821117156200008b57600080fd5b505060209091015181519193509150620000a457600080fd5b81518310620000b257600080fd5b600880546001600160a01b0319166001600160a01b038316179055600060068190556005805460ff1916600217905560016007819055604080516080810182528581526020808201889052918101849052606081018490529183529182528051805191927fada5013122d395ba3c54772283fb069b10426056ef8ca54750cb9bb552a59e7d92620001479284920190620001a2565b50602082015181600101556040820151816002015560608201518160030155905050600160007f3ef85928df9ae51bdb3eb4c00ec73b92b82307f319ac1b029de14796a097260960405160405180910390a350505062000236565b828054828255906000526020600020908101928215620001fa579160200282015b82811115620001fa57825182546001600160a01b0319166001600160a01b03909116178255602090920191600190910190620001c3565b50620002089291506200020c565b5090565b6200023391905b80821115620002085780546001600160a01b031916815560010162000213565b90565b6118ee80620002466000396000f3fe608060405234801561001057600080fd5b506004361061016a5760003560e01c8063073ce82d1461016f5780630b7f166514610189578063197d6ca4146101915780631ec6b60a146101b7578063200d2ed2146101c15780632b38cd96146101ed5780632fb0fc6f1461021e57806339f0ebb1146102265780633feb1bd81461022e57806340cddab314610260578063447fe289146102b85780634615d5e9146102d557806349f92f63146102f25780635197c7aa1461030f578063535565591461031757806355a373d61461033457806357456f22146103585780638199d3fd1461037e578063900cf0cf14610386578063915eb0e71461038e5780639bf6a74a14610396578063a7699d02146103bc578063a8311aa8146103df578063aae46bab146103e7578063aea0e78b14610404578063b7ab4db51461040c578063cc8ee06514610414578063d09fc00414610431578063df7852301461044e578063e75235b814610456575b600080fd5b61017761045e565b60408051918252519081900360200190f35b610177610471565b610177600480360360208110156101a757600080fd5b50356001600160a01b0316610489565b6101bf6104f6565b005b6101c9610621565b604051808260038111156101d957fe5b60ff16815260200191505060405180910390f35b61020a6004803603602081101561020357600080fd5b503561062a565b604080519115158252519081900360200190f35b61017761063f565b6101bf6106a9565b6101bf6004803603606081101561024457600080fd5b508035906001600160a01b036020820135169060400135610795565b6102686108f5565b60408051602080825283518183015283519192839290830191858101910280838360005b838110156102a457818101518382015260200161028c565b505050509050019250505060405180910390f35b610177600480360360208110156102ce57600080fd5b5035610960565b610177600480360360208110156102eb57600080fd5b5035610972565b61020a6004803603602081101561030857600080fd5b5035610987565b61017761099c565b6101bf6004803603602081101561032d57600080fd5b50356109b4565b61033c610adc565b604080516001600160a01b039092168252519081900360200190f35b6101bf6004803603602081101561036e57600080fd5b50356001600160a01b0316610aeb565b610177610c2b565b610177610c38565b6101bf610c3e565b6101bf600480360360208110156103ac57600080fd5b50356001600160a01b0316610d2d565b6101bf600480360360408110156103d257600080fd5b5080359060200135610e3c565b610177610fa8565b610177600480360360208110156103fd57600080fd5b5035610fb5565b610177610fc7565b610268610fcd565b6101bf6004803603602081101561042a57600080fd5b5035611036565b6101776004803603602081101561044757600080fd5b50356110ff565b6101bf611111565b610177611261565b600061046b600754610960565b90505b90565b60065460009081526020819052604090206003015490565b600060606104956108f5565b905060005b6104a261045e565b8110156104ea57836001600160a01b03168282815181106104bf57fe5b60200260200101516001600160a01b031614156104e25760010191506104f19050565b60010161049a565b5060009150505b919050565b600060055460ff16600381111561050957fe5b14806105255750600160055460ff16600381111561052357fe5b145b610575576040805162461bcd60e51b815260206004820152601c60248201527b4e6f7420696e207265616479206f7220766f74696e6720737461746560201b604482015290519081900360640190fd5b61057d61063f565b6105bc576040805162461bcd60e51b8152602060048201526017602482015260008051602061189a833981519152604482015290519081900360640190fd5b6105c6600261126e565b1561061f576007805460019081018083556005805460ff19168317905560068054600090815260208190526040808220850154938252808220909401929092555481528181209254815220815461061d929061179f565b505b565b60055460ff1681565b60046020526000908152604090205460ff1681565b6000606061064b610fcd565b905060005b610658610fa8565b8110156106a057336001600160a01b031682828151811061067557fe5b60200260200101516001600160a01b0316141561069857600101915061046e9050565b600101610650565b50600091505090565b600260055460ff1660038111156106bc57fe5b14610704576040805162461bcd60e51b81526020600482015260136024820152724e6f7420696e206b657967656e20737461746560681b604482015290519081900360640190fd5b61070c61063f565b61074b576040805162461bcd60e51b8152602060048201526017602482015260008051602061189a833981519152604482015290519081900360640190fd5b610755600761126e565b1561061f576005805460ff191660011790556007546040517fddbb65cfe1ae4aec03cef0f9667c6d7ba3740927d0c60f4dd4d7104cc31d180a90600090a2565b600060055460ff1660038111156107a857fe5b14806107c45750600160055460ff1660038111156107c257fe5b145b610814576040805162461bcd60e51b815260206004820152601c60248201527b4e6f7420696e207265616479206f7220766f74696e6720737461746560201b604482015290519081900360640190fd5b61081c61063f565b61085b576040805162461bcd60e51b8152602060048201526017602482015260008051602061189a833981519152604482015290519081900360640190fd5b61086860088484846112c5565b156108f0576008546040805163a9059cbb60e01b81526001600160a01b038581166004830152602482018590529151919092169163a9059cbb9160448083019260209291908290030181600087803b1580156108c357600080fd5b505af11580156108d7573d6000803e3d6000fd5b505050506040513d60208110156108ed57600080fd5b50505b505050565b6007546000908152602081815260409182902080548351818402810184019094528084526060939283018282801561095657602002820191906000526020600020905b81546001600160a01b03168152600190910190602001808311610938575b5050505050905090565b60009081526020819052604090205490565b60009081526020819052604090206001015490565b60026020526000908152604090205460ff1681565b60065460009081526020819052604090206002015490565b600060055460ff1660038111156109c757fe5b14610a0e576040805162461bcd60e51b81526020600482015260126024820152714e6f7420696e20726561647920737461746560701b604482015290519081900360640190fd5b6402540be400811015610a2057600080fd5b600854604080516323b872dd60e01b81523360048201523060248201526044810184905290516001600160a01b03909216916323b872dd916064808201926020929091908290030181600087803b158015610a7a57600080fd5b505af1158015610a8e573d6000803e3d6000fd5b505050506040513d6020811015610aa457600080fd5b50506040805182815290517f62e1f484b3909b2c013673bad76a9f14b010600ba983f11ad26e83082883570e9181900360200190a150565b6008546001600160a01b031681565b600160055460ff166003811115610afe57fe5b14610b46576040805162461bcd60e51b81526020600482015260136024820152724e6f7420696e20766f74696e6720737461746560681b604482015290519081900360640190fd5b610b4e61063f565b610b8d576040805162461bcd60e51b8152602060048201526017602482015260008051602061189a833981519152604482015290519081900360640190fd5b610b9681610489565b15610bde576040805162461bcd60e51b815260206004820152601360248201527220b63932b0b23c9030903b30b634b230ba37b960691b604482015290519081900360640190fd5b610be9600382611342565b1561061d576007546000908152602081815260408220805460018101825590835291200180546001600160a01b0383166001600160a01b031990911617905550565b600061046b600754610972565b60065481565b600160055460ff166003811115610c5157fe5b14610c99576040805162461bcd60e51b81526020600482015260136024820152724e6f7420696e20766f74696e6720737461746560681b604482015290519081900360640190fd5b610ca161063f565b610ce0576040805162461bcd60e51b8152602060048201526017602482015260008051602061189a833981519152604482015290519081900360640190fd5b610cea600661126e565b1561061f576005805460ff191660021790556007546006546040517f3ef85928df9ae51bdb3eb4c00ec73b92b82307f319ac1b029de14796a097260990600090a3565b600160055460ff166003811115610d4057fe5b14610d88576040805162461bcd60e51b81526020600482015260136024820152724e6f7420696e20766f74696e6720737461746560681b604482015290519081900360640190fd5b610d9061063f565b610dcf576040805162461bcd60e51b8152602060048201526017602482015260008051602061189a833981519152604482015290519081900360640190fd5b610dd881610489565b610e23576040805162461bcd60e51b815260206004820152601760248201527620b63932b0b23c903737ba1030903b30b634b230ba37b960491b604482015290519081900360640190fd5b610e2e600482611342565b1561061d5761061d816113b7565b600260055460ff166003811115610e4f57fe5b14610e97576040805162461bcd60e51b81526020600482015260136024820152724e6f7420696e206b657967656e20737461746560681b604482015290519081900360640190fd5b610ea033610489565b610ee8576040805162461bcd60e51b81526020600482015260146024820152732737ba1030903732bc3a103b30b634b230ba37b960611b604482015290519081900360640190fd5b610ef460008383611504565b15610fa457600780546000908152602081905260408082206002018590558254825290206003018290555460011415610f67576005805460ff19169055600754600681905560408051848152602081018490528151600080516020611852833981519152929181900390910190a2610fa4565b6005805460ff191660031790556007546006546040517ff4735b85cc98f9a712832825ecab4cfb1649d658f9a73c57a00ea7dde735c79b90600090a35b5050565b600061046b600654610960565b60036020526000908152604090205481565b60075481565b60065460009081526020818152604091829020805483518184028101840190945280845260609392830182828015610956576020028201919060005260206000209081546001600160a01b03168152600190910190602001808311610938575050505050905090565b600160055460ff16600381111561104957fe5b14611091576040805162461bcd60e51b81526020600482015260136024820152724e6f7420696e20766f74696e6720737461746560681b604482015290519081900360640190fd5b61109961063f565b6110d8576040805162461bcd60e51b8152602060048201526017602482015260008051602061189a833981519152604482015290519081900360640190fd5b6110e360058261156d565b1561061d57600754600090815260208190526040902060010155565b60016020526000908152604090205481565b600360055460ff16600381111561112457fe5b14611174576040805162461bcd60e51b815260206004820152601b60248201527a4e6f7420696e2066756e6473207472616e7366657220737461746560281b604482015290519081900360640190fd5b61117c61063f565b6111bb576040805162461bcd60e51b8152602060048201526017602482015260008051602061189a833981519152604482015290519081900360640190fd5b6000600654116111fc5760405162461bcd60e51b81526004018080602001828103825260288152602001806118726028913960400191505060405180910390fd5b61120660016115c5565b1561061f576005805460ff1916905560075460068190556000818152602081815260409182902060028101546003909101548351918252918101919091528151600080516020611852833981519152929181900390910190a2565b600061046b600654610972565b600080826007546040516020018083600881111561128857fe5b60ff1660f81b8152600101828152602001925050506040516020818303038152906040528051906020012090506112be81611615565b9392505050565b60008085858585604051602001808560088111156112df57fe5b60ff1660f81b8152600101848152602001836001600160a01b03166001600160a01b031660601b815260140182815260200194505050505060405160208183030381529060405280519060200120905061133881611615565b9695505050505050565b60008083600754846040516020018084600881111561135d57fe5b60ff1660f81b8152600101838152602001826001600160a01b03166001600160a01b031660601b815260140193505050506040516020818303038152906040528051906020012090506113af81611615565b949350505050565b60005b60016113c461045e565b038110156114a557600754600090815260208190526040902080546001600160a01b0384169190839081106113f557fe5b6000918252602090912001546001600160a01b0316141561149d576007546000908152602081905260409020600161142b61045e565b038154811061143657fe5b6000918252602080832090910154600754835290829052604090912080546001600160a01b03909216918390811061146a57fe5b9060005260206000200160006101000a8154816001600160a01b0302191690836001600160a01b031602179055506114a5565b6001016113ba565b50600754600090815260208190526040902060016114c161045e565b03815481106114cc57fe5b6000918252602080832090910180546001600160a01b0319169055600754825281905260409020805490610fa49060001983016117ef565b6000808460075485856040516020018085600881111561152057fe5b60ff1660f81b8152600101848152602001838152602001828152602001945050505050604051602081830303815290604052805190602001209050611564816116e8565b95945050505050565b60008083600754846040516020018084600881111561158857fe5b60ff1660f81b815260010183815260200182815260200193505050506040516020818303038152906040528051906020012090506113af81611615565b60008082600754604051602001808360088111156115df57fe5b60ff1660f81b8152600101828152602001925050506040516020818303038152906040528051906020012090506112be816116e8565b60008061162183611770565b60008181526004602052604090205490915060ff1615611678576040805162461bcd60e51b815260206004820152600d60248201526c566f74656420616c726561647960981b604482015290519081900360640190fd5b6000818152600460205260409020805460ff19166001179055611699611261565b60008481526003602052604090205414156116cc5750506000818152600360205260409020600160ff1b905560016104f1565b50506000818152600360205260408120805460010190556104f1565b6000806116f483611770565b60008181526004602052604090205490915060ff161561174f576040805162461bcd60e51b8152602060048201526011602482015270436f6e6669726d656420616c726561647960781b604482015290519081900360640190fd5b6000818152600460205260409020805460ff19166001179055611699610c2b565b604080516020808201939093523360601b81830152815180820360340181526054909101909152805191012090565b8280548282559060005260206000209081019282156117df5760005260206000209182015b828111156117df5782548255916001019190600101906117c4565b506117eb929150611813565b5090565b8154818355818111156108f0576000838152602090206108f0918101908301611837565b61046e91905b808211156117eb5780546001600160a01b0319168155600101611819565b61046e91905b808211156117eb576000815560010161183d56fec33272939f066c227e913a4b3434d860794f185c551685c29451a3a38b9b259c46697273742065706f636820646f6573206e6f74206e6565642066756e6473207472616e736665724e6f7420612063757272656e742076616c696461746f72000000000000000000a265627a7a723058201639ee8e14efd96cafba5d4d7a7f0b48a959f9d972ffbb73eb45f25a080ce83564736f6c63430005090032",
  "source": "pragma solidity ^0.5.0;\n\nimport './openzeppelin-solidity/contracts/token/ERC20/IERC20.sol';\n\ncontract Bridge {\n    event ExchangeRequest(uint value);\n    event NewEpoch(uint indexed oldEpoch, uint indexed newEpoch);\n    event NewEpochCancelled(uint indexed epoch);\n    event NewFundsTransfer(uint indexed oldEpoch, uint indexed newEpoch);\n    event EpochStart(uint indexed epoch, uint x, uint y);\n\n    struct State {\n        address[] validators;\n        uint threshold;\n        uint x;\n        uint y;\n    }\n\n    enum Status {\n        READY, // bridge is in ready to perform operations\n        VOTING, // voting for changing in next epoch, but still ready\n        KEYGEN, //keygen, can be cancelled\n        FUNDS_TRANSFER // funds transfer, cannot be cancelled\n    }\n\n    enum Vote {\n        CONFIRM_KEYGEN,\n        CONFIRM_FUNDS_TRANSFER,\n        START_VOTING,\n        ADD_VALIDATOR,\n        REMOVE_VALIDATOR,\n        CHANGE_THRESHOLD,\n        START_KEYGEN,\n        CANCEL_KEYGEN,\n        TRANSFER\n    }\n\n    mapping(uint => State) states;\n\n    mapping(bytes32 => uint) public dbTransferCount;\n    mapping(bytes32 => bool) public dbTransfer;\n    mapping(bytes32 => uint) public votesCount;\n    mapping(bytes32 => bool) public votes;\n\n    Status public status;\n\n    uint public epoch;\n    uint public nextEpoch;\n\n    constructor(uint threshold, address[] memory validators, address _tokenContract) public {\n        require(validators.length > 0);\n        require(threshold < validators.length);\n\n        tokenContract = IERC20(_tokenContract);\n\n        epoch = 0;\n        status = Status.KEYGEN;\n        nextEpoch = 1;\n\n        states[1] = State(validators, threshold, 0, 0);\n\n        emit NewEpoch(0, 1);\n    }\n\n    IERC20 public tokenContract;\n\n    modifier ready {\n        require(status == Status.READY, \"Not in ready state\");\n        _;\n    }\n\n    modifier readyOrVoting {\n        require(status == Status.READY || status == Status.VOTING, \"Not in ready or voting state\");\n        _;\n    }\n\n    modifier voting {\n        require(status == Status.VOTING, \"Not in voting state\");\n        _;\n    }\n\n    modifier keygen {\n        require(status == Status.KEYGEN, \"Not in keygen state\");\n        _;\n    }\n\n    modifier fundsTransfer {\n        require(status == Status.FUNDS_TRANSFER, \"Not in funds transfer state\");\n        _;\n    }\n\n    modifier currentValidator {\n        require(getPartyId() != 0, \"Not a current validator\");\n        _;\n    }\n\n    function exchange(uint value) public ready {\n        require(value >= 10 ** 10);\n\n        tokenContract.transferFrom(msg.sender, address(this), value);\n        emit ExchangeRequest(value);\n    }\n\n    function transfer(bytes32 hash, address to, uint value) public readyOrVoting currentValidator {\n        if (tryVote(Vote.TRANSFER, hash, to, value)) {\n            tokenContract.transfer(to, value);\n        }\n    }\n\n    function confirmKeygen(uint x, uint y) public keygen {\n        require(getNextPartyId(msg.sender) != 0, \"Not a next validator\");\n\n        if (tryConfirm(Vote.CONFIRM_KEYGEN, x, y)) {\n            states[nextEpoch].x = x;\n            states[nextEpoch].y = y;\n            if (nextEpoch == 1) {\n                status = Status.READY;\n                epoch = nextEpoch;\n                emit EpochStart(epoch, x, y);\n            }\n            else {\n                status = Status.FUNDS_TRANSFER;\n                emit NewFundsTransfer(epoch, nextEpoch);\n            }\n        }\n    }\n\n    function confirmFundsTransfer() public fundsTransfer currentValidator {\n        require(epoch > 0, \"First epoch does not need funds transfer\");\n\n        if (tryConfirm(Vote.CONFIRM_FUNDS_TRANSFER)) {\n            status = Status.READY;\n            epoch = nextEpoch;\n            emit EpochStart(epoch, states[epoch].x, states[epoch].y);\n        }\n    }\n\n    function getParties() view public returns (uint) {\n        return getParties(epoch);\n    }\n\n    function getNextParties() view public returns (uint) {\n        return getParties(nextEpoch);\n    }\n\n    function getParties(uint _epoch) view public returns (uint) {\n        return states[_epoch].validators.length;\n    }\n\n    function getThreshold() view public returns (uint) {\n        return getThreshold(epoch);\n    }\n\n    function getNextThreshold() view public returns (uint) {\n        return getThreshold(nextEpoch);\n    }\n\n    function getThreshold(uint _epoch) view public returns (uint) {\n        return states[_epoch].threshold;\n    }\n\n    function getX() view public returns (uint) {\n        return states[epoch].x;\n    }\n\n    function getY() view public returns (uint) {\n        return states[epoch].y;\n    }\n\n    function getPartyId() view public returns (uint) {\n        address[] memory validators = getValidators();\n        for (uint i = 0; i < getParties(); i++) {\n            if (validators[i] == msg.sender)\n                return i + 1;\n        }\n        return 0;\n    }\n\n    function getNextPartyId(address a) view public returns (uint) {\n        address[] memory validators = getNextValidators();\n        for (uint i = 0; i < getNextParties(); i++) {\n            if (validators[i] == a)\n                return i + 1;\n        }\n        return 0;\n    }\n\n    function getValidators() view public returns (address[] memory) {\n        return states[epoch].validators;\n    }\n\n    function getNextValidators() view public returns (address[] memory) {\n        return states[nextEpoch].validators;\n    }\n\n    function startVoting() public readyOrVoting currentValidator {\n        if (tryVote(Vote.START_VOTING)) {\n            nextEpoch++;\n            status = Status.VOTING;\n            states[nextEpoch].threshold = states[epoch].threshold;\n            states[nextEpoch].validators = states[epoch].validators;\n        }\n    }\n\n    function voteAddValidator(address validator) public voting currentValidator {\n        require(getNextPartyId(validator) == 0, \"Already a validator\");\n\n        if (tryVote(Vote.ADD_VALIDATOR, validator)) {\n            states[nextEpoch].validators.push(validator);\n        }\n    }\n\n    function voteRemoveValidator(address validator) public voting currentValidator {\n        require(getNextPartyId(validator) != 0, \"Already not a validator\");\n\n        if (tryVote(Vote.REMOVE_VALIDATOR, validator)) {\n            _removeValidator(validator);\n        }\n    }\n\n    function _removeValidator(address validator) private {\n        for (uint i = 0; i < getNextParties() - 1; i++) {\n            if (states[nextEpoch].validators[i] == validator) {\n                states[nextEpoch].validators[i] = states[nextEpoch].validators[getNextParties() - 1];\n                break;\n            }\n        }\n        delete states[nextEpoch].validators[getNextParties() - 1];\n        states[nextEpoch].validators.length--;\n    }\n\n    function voteChangeThreshold(uint threshold) public voting currentValidator {\n        if (tryVote(Vote.CHANGE_THRESHOLD, threshold)) {\n            states[nextEpoch].threshold = threshold;\n        }\n    }\n\n    function voteStartKeygen() public voting currentValidator {\n        if (tryVote(Vote.START_KEYGEN)) {\n            status = Status.KEYGEN;\n\n            emit NewEpoch(epoch, nextEpoch);\n        }\n    }\n\n    function voteCancelKeygen() public keygen currentValidator {\n        if (tryVote(Vote.CANCEL_KEYGEN)) {\n            status = Status.VOTING;\n\n            emit NewEpochCancelled(nextEpoch);\n        }\n    }\n\n    function tryVote(Vote voteType) private returns (bool) {\n        bytes32 vote = keccak256(abi.encodePacked(voteType, nextEpoch));\n        return putVote(vote);\n    }\n\n    function tryVote(Vote voteType, address addr) private returns (bool) {\n        bytes32 vote = keccak256(abi.encodePacked(voteType, nextEpoch, addr));\n        return putVote(vote);\n    }\n\n    function tryVote(Vote voteType, uint num) private returns (bool) {\n        bytes32 vote = keccak256(abi.encodePacked(voteType, nextEpoch, num));\n        return putVote(vote);\n    }\n\n    function tryVote(Vote voteType, bytes32 hash, address to, uint value) private returns (bool) {\n        bytes32 vote = keccak256(abi.encodePacked(voteType, hash, to, value));\n        return putVote(vote);\n    }\n\n    function tryConfirm(Vote voteType) private returns (bool) {\n        bytes32 vote = keccak256(abi.encodePacked(voteType, nextEpoch));\n        return putConfirm(vote);\n    }\n\n    function tryConfirm(Vote voteType, uint x, uint y) private returns (bool) {\n        bytes32 vote = keccak256(abi.encodePacked(voteType, nextEpoch, x, y));\n        return putConfirm(vote);\n    }\n\n    function putVote(bytes32 vote) private returns (bool) {\n        bytes32 personalVote = personalizeVote(vote);\n        require(!votes[personalVote], \"Voted already\");\n\n        votes[personalVote] = true;\n        if (votesCount[vote] == getThreshold()) {\n            votesCount[vote] = 2 ** 255;\n            return true;\n        } else {\n            votesCount[vote]++;\n            return false;\n        }\n    }\n\n    function putConfirm(bytes32 vote) private returns (bool) {\n        bytes32 personalVote = personalizeVote(vote);\n        require(!votes[personalVote], \"Confirmed already\");\n\n        votes[personalVote] = true;\n        if (votesCount[vote] == getNextThreshold()) {\n            votesCount[vote] = 2 ** 255;\n            return true;\n        } else {\n            votesCount[vote]++;\n            return false;\n        }\n    }\n\n    function personalizeVote(bytes32 vote) private view returns (bytes32) {\n        return keccak256(abi.encodePacked(vote, msg.sender));\n    }\n}\n",
  "sourcePath": "/Users/kirillfedoseev/Innopolis/My own projects/bridge/bridge/src/deploy/deploy-home/contracts/Bridge.sol",
  "compiler": {
    "name": "solc",
    "version": "0.5.9+commit.e560f70d.Emscripten.clang"
  },
  "schemaVersion": "3.0.16",
  "updatedAt": "2019-10-09T13:02:17.532Z",
  "devdoc": {
    "methods": {}
  },
  "userdoc": {
    "methods": {}
  }
}