{
  "contractName": "SharedDB",
  "abi": [
    {
      "constant": true,
      "inputs": [
        {
          "name": "",
          "type": "bytes32"
        }
      ],
      "name": "dbSignups",
      "outputs": [
        {
          "name": "",
          "type": "uint256"
        }
      ],
      "payable": false,
      "stateMutability": "view",
      "type": "function"
    },
    {
      "constant": true,
      "inputs": [
        {
          "name": "",
          "type": "bytes32"
        }
      ],
      "name": "signupsCount",
      "outputs": [
        {
          "name": "",
          "type": "uint256"
        }
      ],
      "payable": false,
      "stateMutability": "view",
      "type": "function"
    },
    {
      "constant": true,
      "inputs": [
        {
          "name": "",
          "type": "bytes32"
        }
      ],
      "name": "db",
      "outputs": [
        {
          "name": "",
          "type": "bytes"
        }
      ],
      "payable": false,
      "stateMutability": "view",
      "type": "function"
    },
    {
      "constant": false,
      "inputs": [
        {
          "name": "hash",
          "type": "bytes32"
        }
      ],
      "name": "signupSign",
      "outputs": [],
      "payable": false,
      "stateMutability": "nonpayable",
      "type": "function"
    },
    {
      "constant": true,
      "inputs": [
        {
          "name": "hash",
          "type": "bytes32"
        },
        {
          "name": "validators",
          "type": "address[]"
        },
        {
          "name": "validator",
          "type": "address"
        }
      ],
      "name": "getSignupNumber",
      "outputs": [
        {
          "name": "",
          "type": "uint256"
        }
      ],
      "payable": false,
      "stateMutability": "view",
      "type": "function"
    },
    {
      "constant": true,
      "inputs": [
        {
          "name": "hash",
          "type": "bytes32"
        },
        {
          "name": "validators",
          "type": "address[]"
        },
        {
          "name": "signupNumber",
          "type": "uint256"
        }
      ],
      "name": "getSignupAddress",
      "outputs": [
        {
          "name": "",
          "type": "address"
        }
      ],
      "payable": false,
      "stateMutability": "view",
      "type": "function"
    },
    {
      "constant": false,
      "inputs": [
        {
          "name": "hash",
          "type": "bytes32"
        },
        {
          "name": "key",
          "type": "bytes32"
        },
        {
          "name": "data",
          "type": "bytes"
        }
      ],
      "name": "setData",
      "outputs": [],
      "payable": false,
      "stateMutability": "nonpayable",
      "type": "function"
    },
    {
      "constant": true,
      "inputs": [
        {
          "name": "from",
          "type": "address"
        },
        {
          "name": "hash",
          "type": "bytes32"
        },
        {
          "name": "key",
          "type": "bytes32"
        }
      ],
      "name": "getData",
      "outputs": [
        {
          "name": "",
          "type": "bytes"
        }
      ],
      "payable": false,
      "stateMutability": "view",
      "type": "function"
    }
  ],
  "bytecode": "0x608060405234801561001057600080fd5b5061093b806100206000396000f3fe608060405234801561001057600080fd5b50600436106100785760003560e01c80631aaaffbd1461007d57806348b2865e1461014357806374ce45e1146101ea5780637ad5f33d1461020957806399648b3214610238578063ca2a834714610255578063ecf265bc14610308578063f865c6fc14610325575b600080fd5b6101276004803603606081101561009357600080fd5b81359190810190604081016020820135600160201b8111156100b457600080fd5b8201836020820111156100c657600080fd5b803590602001918460208302840111600160201b831117156100e757600080fd5b91908080602002602001604051908101604052809392919081815260200183836020028082843760009201919091525092955050913592506103d5915050565b604080516001600160a01b039092168252519081900360200190f35b6101756004803603606081101561015957600080fd5b506001600160a01b038135169060208101359060400135610438565b6040805160208082528351818301528351919283929083019185019080838360005b838110156101af578181015183820152602001610197565b50505050905090810190601f1680156101dc5780820380516001836020036101000a031916815260200191505b509250505060405180910390f35b6102076004803603602081101561020057600080fd5b5035610516565b005b6102266004803603602081101561021f57600080fd5b50356105eb565b60408051918252519081900360200190f35b6102266004803603602081101561024e57600080fd5b50356105fd565b6102266004803603606081101561026b57600080fd5b81359190810190604081016020820135600160201b81111561028c57600080fd5b82018360208201111561029e57600080fd5b803590602001918460208302840111600160201b831117156102bf57600080fd5b919080806020026020016040519081016040528093929190818152602001838360200280828437600092019190915250929550505090356001600160a01b0316915061060f9050565b6101756004803603602081101561031e57600080fd5b5035610777565b6102076004803603606081101561033b57600080fd5b813591602081013591810190606081016040820135600160201b81111561036157600080fd5b82018360208201111561037357600080fd5b803590602001918460018302840111600160201b8311171561039457600080fd5b91908080601f016020809104026020016040519081016040528093929190818152602001838380828437600092019190915250929550610811945050505050565b6000805b835181101561042b578261040186868785815181106103f457fe5b602002602001015161060f565b14156104235783818151811061041357fe5b6020026020010151915050610431565b6001016103d9565b50600090505b9392505050565b60408051606085811b6001600160601b03191660208084019190915260348301869052605480840186905284518085039091018152607484018086528151918301919091206000908152808352859020805460026001821615610100026000190190911604601f8101849004909302850160949081019096528282529294909301828280156105085780601f106104dd57610100808354040283529160200191610508565b820191906000526020600020905b8154815290600101906020018083116104eb57829003601f168201915b505050505090509392505050565b604080513360601b602080830191909152603480830185905283518084039091018152605490920183528151918101919091206000908152600290915220541561059a576040805162461bcd60e51b815260206004820152601060248201526f105b1c9958591e481cda59db9d5c195960821b604482015290519081900360640190fd5b600081815260016020818152604080842080549093019283905580513360601b8184015260348082019690965281518082039096018652605401815284519482019490942083526002905291902055565b60026020526000908152604090205481565b60016020526000908152604090205481565b600060026000838660405160200180836001600160a01b03166001600160a01b031660601b815260140182815260200192505050604051602081830303815290604052805190602001208152602001908152602001600020546000141561067857506000610431565b600160005b845181101561076e5760006002600087848151811061069857fe5b60200260200101518960405160200180836001600160a01b03166001600160a01b031660601b815260140182815260200192505050604051602081830303815290604052805190602001208152602001908152602001600020549050600081118015610759575060026000868960405160200180836001600160a01b03166001600160a01b031660601b8152601401828152602001925050506040516020818303038152906040528051906020012081526020019081526020016000205481105b15610765576001909201915b5060010161067d565b50949350505050565b600060208181529181526040908190208054825160026001831615610100026000190190921691909104601f8101859004850282018501909352828152929091908301828280156108095780601f106107de57610100808354040283529160200191610809565b820191906000526020600020905b8154815290600101906020018083116107ec57829003601f168201915b505050505081565b604080513360601b602080830191909152603482018690526054808301869052835180840390910181526074909201835281519181019190912060009081528082529190912082516108659284019061086b565b50505050565b828054600181600116156101000203166002900490600052602060002090601f016020900481019282601f106108ac57805160ff19168380011785556108d9565b828001600101855582156108d9579182015b828111156108d95782518255916020019190600101906108be565b506108e59291506108e9565b5090565b61090391905b808211156108e557600081556001016108ef565b9056fea265627a7a723058203b87ffa77e3c8cbdec6d449f68f04dffd78ea0048b5bc86e3b9a1073187a6e1f64736f6c63430005090032",
  "source": "pragma solidity ^0.5.0;\n\ncontract SharedDB {\n    mapping(bytes32 => bytes) public db;\n    mapping(bytes32 => uint) public signupsCount;\n    mapping(bytes32 => uint) public dbSignups;\n\n    function signupSign(bytes32 hash) public {\n        require(dbSignups[keccak256(abi.encodePacked(msg.sender, hash))] == 0, \"Already signuped\");\n\n        dbSignups[keccak256(abi.encodePacked(msg.sender, hash))] = ++signupsCount[hash];\n    }\n\n    function getSignupNumber(bytes32 hash, address[] memory validators, address validator) view public returns (uint) {\n        if (dbSignups[keccak256(abi.encodePacked(validator, hash))] == 0)\n            return 0;\n        uint id = 1;\n        for (uint i = 0; i < validators.length; i++) {\n            uint vid = dbSignups[keccak256(abi.encodePacked(validators[i], hash))];\n            if (vid > 0 && vid < dbSignups[keccak256(abi.encodePacked(validator, hash))])\n                id++;\n        }\n        return id;\n    }\n\n    function getSignupAddress(bytes32 hash, address[] memory validators, uint signupNumber) view public returns (address) {\n        for (uint i = 0; i < validators.length; i++) {\n            if (getSignupNumber(hash, validators, validators[i]) == signupNumber) {\n                return validators[i];\n            }\n        }\n        return address(0);\n    }\n\n    function setData(bytes32 hash, bytes32 key, bytes memory data) public {\n        db[keccak256(abi.encodePacked(msg.sender, hash, key))] = data;\n    }\n\n    function getData(address from, bytes32 hash, bytes32 key) view public returns (bytes memory) {\n        return db[keccak256(abi.encodePacked(from, hash, key))];\n    }\n}\n",
  "sourcePath": "/build/contracts/SharedDB.sol",
  "compiler": {
    "name": "solc",
    "version": "0.5.9+commit.e560f70d.Emscripten.clang"
  },
  "schemaVersion": "3.0.11",
  "updatedAt": "2019-10-28T13:23:05.363Z",
  "devdoc": {
    "methods": {}
  },
  "userdoc": {
    "methods": {}
  }
}