{
  "contractName": "SharedDB",
  "abi": [
    {
      "constant": true,
      "inputs": [
        {
          "name": "",
          "type": "bytes32"
        }
      ],
      "name": "db",
      "outputs": [
        {
          "name": "",
          "type": "string"
        }
      ],
      "payable": false,
      "stateMutability": "view",
      "type": "function"
    },
    {
      "inputs": [
        {
          "name": "_threshold",
          "type": "uint32"
        },
        {
          "name": "_parties",
          "type": "uint32"
        }
      ],
      "payable": false,
      "stateMutability": "nonpayable",
      "type": "constructor"
    },
    {
      "anonymous": false,
      "inputs": [
        {
          "indexed": true,
          "name": "from",
          "type": "address"
        },
        {
          "indexed": false,
          "name": "uuid",
          "type": "uint32"
        },
        {
          "indexed": false,
          "name": "number",
          "type": "uint32"
        }
      ],
      "name": "SignupKeygen",
      "type": "event"
    },
    {
      "anonymous": false,
      "inputs": [
        {
          "indexed": true,
          "name": "from",
          "type": "address"
        },
        {
          "indexed": false,
          "name": "uuid",
          "type": "uint32"
        },
        {
          "indexed": false,
          "name": "number",
          "type": "uint32"
        }
      ],
      "name": "SignupSign",
      "type": "event"
    },
    {
      "constant": false,
      "inputs": [
        {
          "name": "key",
          "type": "bytes32"
        },
        {
          "name": "value",
          "type": "string"
        }
      ],
      "name": "set",
      "outputs": [],
      "payable": false,
      "stateMutability": "nonpayable",
      "type": "function"
    },
    {
      "constant": false,
      "inputs": [],
      "name": "signupKeygen",
      "outputs": [],
      "payable": false,
      "stateMutability": "nonpayable",
      "type": "function"
    },
    {
      "constant": false,
      "inputs": [],
      "name": "signupSign",
      "outputs": [],
      "payable": false,
      "stateMutability": "nonpayable",
      "type": "function"
    }
  ],
  "bytecode": "0x608060405234801561001057600080fd5b506040516105ab3803806105ab8339818101604052604081101561003357600080fd5b508051602090910151600080546801000000000000000063ffffffff1990911663ffffffff9485161763ffffffff60201b191664010000000094909316939093029190911763ffffffff60401b19169190911763ffffffff60801b19167380000000000000000000000000000000000000001781556104f39081906100b890396000f3fe608060405234801561001057600080fd5b506004361061004c5760003560e01c806377d1f0ee14610051578063b48000331461005b578063e8f580d414610106578063ecf265bc1461010e575b600080fd5b6100596101a0565b005b6100596004803603604081101561007157600080fd5b81359190810190604081016020820135600160201b81111561009257600080fd5b8201836020820111156100a457600080fd5b803590602001918460018302840111600160201b831117156100c557600080fd5b91908080601f016020809104026020016040519081016040528093929190818152602001838380828437600092019190915250929550610282945050505050565b6100596102a6565b61012b6004803603602081101561012457600080fd5b5035610389565b6040805160208082528351818301528351919283929083019185019080838360005b8381101561016557818101518382015260200161014d565b50505050905090810190601f1680156101925780820380516001836020036101000a031916815260200191505b509250505060405180910390f35b60005463ffffffff8082166001018116600160a01b9092041610156101ee5760008054600163ffffffff600160a01b808404821692909201160263ffffffff60a01b1990911617905561022c565b6000805463ffffffff60a01b19600163ffffffff600160801b808504821692909201160263ffffffff60801b199092169190911716600160a01b1790555b6000546040805163ffffffff600160801b840481168252600160a01b9093049092166020830152805133927fb1e4a016412cc0ae8dbbb6bd98c7aa807e7ae4b994e68527c7be431215fe172092908290030190a2565b600082815260016020908152604090912082516102a192840190610423565b505050565b60005463ffffffff600160201b82048116600160601b9092041610156102f55760008054600163ffffffff600160601b808404821692909201160263ffffffff60601b19909116179055610333565b6000805463ffffffff60601b19600163ffffffff600160401b808504821692909201160263ffffffff60401b199092169190911716600160601b1790555b6000546040805163ffffffff600160401b840481168252600160601b9093049092166020830152805133927f0721a5c0224853cacec19fd92399bd6c6d52c49b331d9cbdbc2b83762017f13b92908290030190a2565b60016020818152600092835260409283902080548451600294821615610100026000190190911693909304601f810183900483028401830190945283835291929083018282801561041b5780601f106103f05761010080835404028352916020019161041b565b820191906000526020600020905b8154815290600101906020018083116103fe57829003601f168201915b505050505081565b828054600181600116156101000203166002900490600052602060002090601f016020900481019282601f1061046457805160ff1916838001178555610491565b82800160010185558215610491579182015b82811115610491578251825591602001919060010190610476565b5061049d9291506104a1565b5090565b6104bb91905b8082111561049d57600081556001016104a7565b9056fea265627a7a723058201f5f3fcdebd29048bd539389ef486f1e0e602d7b3eb90b99d14d73a60b7ef77764736f6c63430005090032",
  "source": "pragma solidity ^0.5.0;\n\ncontract SharedDB {\n    uint32 threshold;\n    uint32 parties;\n    uint32 signupKeygenID;\n    uint32 signupKeygenCurrent;\n    uint32 signupSignID;\n    uint32 signupSignCurrent;\n    mapping(bytes32 => string) public db;\n\n    event SignupKeygen(address indexed from, uint32 uuid, uint32 number);\n    event SignupSign(address indexed from, uint32 uuid, uint32 number);\n\n    constructor(uint32 _threshold, uint32 _parties) public {\n        threshold = _threshold;\n        parties = _parties;\n        signupKeygenID = 1;\n        signupSignID = 0x80000000;\n    }\n\n    function set(bytes32 key, string memory value) public {\n        db[key] = value;\n    }\n\n    function signupKeygen() public {\n        if (signupKeygenCurrent < parties) {\n            signupKeygenCurrent++;\n        }\n        else {\n            signupKeygenID++;\n            signupKeygenCurrent = 1;\n        }\n        emit SignupKeygen(msg.sender, signupKeygenID, signupKeygenCurrent);\n    }\n\n    function signupSign() public {\n        if (signupSignCurrent < threshold + 1) {\n            signupSignCurrent++;\n        }\n        else {\n            signupSignID++;\n            signupSignCurrent = 1;\n        }\n        emit SignupSign(msg.sender, signupSignID, signupSignCurrent);\n    }\n}\n",
  "sourcePath": "/Users/kirillfedoseev/Innopolis/My own projects/bridge/bridge/src/deploy/contracts/SharedDB.sol",
  "compiler": {
    "name": "solc",
    "version": "0.5.9+commit.e560f70d.Emscripten.clang"
  },
  "schemaVersion": "3.0.10",
  "updatedAt": "2019-06-20T04:38:54.753Z",
  "devdoc": {
    "methods": {}
  },
  "userdoc": {
    "methods": {}
  }
}