{
  "contractName": "SharedDB",
  "abi": [
    {
      "constant": true,
      "inputs": [],
      "name": "x",
      "outputs": [
        {
          "name": "",
          "type": "uint256"
        }
      ],
      "payable": false,
      "stateMutability": "view",
      "type": "function"
    },
    {
      "constant": true,
      "inputs": [
        {
          "name": "",
          "type": "bytes32"
        }
      ],
      "name": "confirmationsCount",
      "outputs": [
        {
          "name": "",
          "type": "uint256"
        }
      ],
      "payable": false,
      "stateMutability": "view",
      "type": "function"
    },
    {
      "constant": true,
      "inputs": [
        {
          "name": "",
          "type": "uint256"
        }
      ],
      "name": "threshold",
      "outputs": [
        {
          "name": "",
          "type": "uint256"
        }
      ],
      "payable": false,
      "stateMutability": "view",
      "type": "function"
    },
    {
      "constant": true,
      "inputs": [],
      "name": "tokenContract",
      "outputs": [
        {
          "name": "",
          "type": "address"
        }
      ],
      "payable": false,
      "stateMutability": "view",
      "type": "function"
    },
    {
      "constant": true,
      "inputs": [
        {
          "name": "",
          "type": "bytes32"
        }
      ],
      "name": "dbSign",
      "outputs": [
        {
          "name": "",
          "type": "bytes"
        }
      ],
      "payable": false,
      "stateMutability": "view",
      "type": "function"
    },
    {
      "constant": true,
      "inputs": [],
      "name": "ready",
      "outputs": [
        {
          "name": "",
          "type": "bool"
        }
      ],
      "payable": false,
      "stateMutability": "view",
      "type": "function"
    },
    {
      "constant": true,
      "inputs": [
        {
          "name": "",
          "type": "uint256"
        }
      ],
      "name": "parties",
      "outputs": [
        {
          "name": "",
          "type": "uint256"
        }
      ],
      "payable": false,
      "stateMutability": "view",
      "type": "function"
    },
    {
      "constant": true,
      "inputs": [
        {
          "name": "",
          "type": "bytes32"
        }
      ],
      "name": "dbSignups",
      "outputs": [
        {
          "name": "",
          "type": "uint256"
        }
      ],
      "payable": false,
      "stateMutability": "view",
      "type": "function"
    },
    {
      "constant": true,
      "inputs": [],
      "name": "epoch",
      "outputs": [
        {
          "name": "",
          "type": "uint256"
        }
      ],
      "payable": false,
      "stateMutability": "view",
      "type": "function"
    },
    {
      "constant": true,
      "inputs": [
        {
          "name": "",
          "type": "bytes32"
        }
      ],
      "name": "signupsCount",
      "outputs": [
        {
          "name": "",
          "type": "uint256"
        }
      ],
      "payable": false,
      "stateMutability": "view",
      "type": "function"
    },
    {
      "constant": true,
      "inputs": [],
      "name": "y",
      "outputs": [
        {
          "name": "",
          "type": "uint256"
        }
      ],
      "payable": false,
      "stateMutability": "view",
      "type": "function"
    },
    {
      "constant": true,
      "inputs": [
        {
          "name": "",
          "type": "bytes32"
        }
      ],
      "name": "dbValidator",
      "outputs": [
        {
          "name": "addr",
          "type": "address"
        },
        {
          "name": "partyId",
          "type": "uint256"
        },
        {
          "name": "next",
          "type": "bytes32"
        }
      ],
      "payable": false,
      "stateMutability": "view",
      "type": "function"
    },
    {
      "constant": true,
      "inputs": [
        {
          "name": "",
          "type": "bytes32"
        }
      ],
      "name": "dbKeygen",
      "outputs": [
        {
          "name": "",
          "type": "bytes"
        }
      ],
      "payable": false,
      "stateMutability": "view",
      "type": "function"
    },
    {
      "constant": true,
      "inputs": [
        {
          "name": "",
          "type": "bytes32"
        }
      ],
      "name": "confirmations",
      "outputs": [
        {
          "name": "",
          "type": "bool"
        }
      ],
      "payable": false,
      "stateMutability": "view",
      "type": "function"
    },
    {
      "inputs": [
        {
          "name": "_threshold",
          "type": "uint32"
        },
        {
          "name": "_parties",
          "type": "uint32"
        },
        {
          "name": "validators",
          "type": "address[]"
        },
        {
          "name": "_tokenContract",
          "type": "address"
        }
      ],
      "payable": false,
      "stateMutability": "nonpayable",
      "type": "constructor"
    },
    {
      "anonymous": false,
      "inputs": [
        {
          "indexed": true,
          "name": "epoch",
          "type": "uint256"
        }
      ],
      "name": "NewEpoch",
      "type": "event"
    },
    {
      "anonymous": false,
      "inputs": [
        {
          "indexed": true,
          "name": "epoch",
          "type": "uint256"
        },
        {
          "indexed": false,
          "name": "x",
          "type": "uint256"
        },
        {
          "indexed": false,
          "name": "y",
          "type": "uint256"
        }
      ],
      "name": "KeygenCompleted",
      "type": "event"
    },
    {
      "anonymous": false,
      "inputs": [
        {
          "indexed": true,
          "name": "from",
          "type": "address"
        },
        {
          "indexed": true,
          "name": "hash",
          "type": "bytes32"
        },
        {
          "indexed": false,
          "name": "epoch",
          "type": "uint256"
        },
        {
          "indexed": false,
          "name": "partyId",
          "type": "uint256"
        }
      ],
      "name": "Signup",
      "type": "event"
    },
    {
      "anonymous": false,
      "inputs": [
        {
          "indexed": false,
          "name": "from",
          "type": "address"
        },
        {
          "indexed": false,
          "name": "recipient",
          "type": "string"
        },
        {
          "indexed": false,
          "name": "value",
          "type": "uint256"
        }
      ],
      "name": "ReceivedTokens",
      "type": "event"
    },
    {
      "constant": false,
      "inputs": [
        {
          "name": "value",
          "type": "uint256"
        },
        {
          "name": "recipient",
          "type": "string"
        }
      ],
      "name": "requestAffirmation",
      "outputs": [],
      "payable": false,
      "stateMutability": "nonpayable",
      "type": "function"
    },
    {
      "constant": false,
      "inputs": [
        {
          "name": "_x",
          "type": "uint256"
        },
        {
          "name": "_y",
          "type": "uint256"
        }
      ],
      "name": "confirm",
      "outputs": [],
      "payable": false,
      "stateMutability": "nonpayable",
      "type": "function"
    },
    {
      "constant": false,
      "inputs": [
        {
          "name": "key",
          "type": "bytes32"
        },
        {
          "name": "data",
          "type": "bytes"
        }
      ],
      "name": "setKeygenData",
      "outputs": [],
      "payable": false,
      "stateMutability": "nonpayable",
      "type": "function"
    },
    {
      "constant": true,
      "inputs": [
        {
          "name": "fromPartyId",
          "type": "uint256"
        },
        {
          "name": "key",
          "type": "bytes32"
        }
      ],
      "name": "getKeygenData",
      "outputs": [
        {
          "name": "",
          "type": "bytes"
        }
      ],
      "payable": false,
      "stateMutability": "view",
      "type": "function"
    },
    {
      "constant": false,
      "inputs": [
        {
          "name": "hash",
          "type": "bytes32"
        },
        {
          "name": "_epoch",
          "type": "uint256"
        }
      ],
      "name": "signupSign",
      "outputs": [],
      "payable": false,
      "stateMutability": "nonpayable",
      "type": "function"
    },
    {
      "constant": false,
      "inputs": [
        {
          "name": "hash",
          "type": "bytes32"
        }
      ],
      "name": "signupSign",
      "outputs": [],
      "payable": false,
      "stateMutability": "nonpayable",
      "type": "function"
    },
    {
      "constant": false,
      "inputs": [
        {
          "name": "hash",
          "type": "bytes32"
        },
        {
          "name": "key",
          "type": "bytes32"
        },
        {
          "name": "data",
          "type": "bytes"
        }
      ],
      "name": "setSignData",
      "outputs": [],
      "payable": false,
      "stateMutability": "nonpayable",
      "type": "function"
    },
    {
      "constant": true,
      "inputs": [
        {
          "name": "signupId",
          "type": "uint256"
        },
        {
          "name": "hash",
          "type": "bytes32"
        },
        {
          "name": "key",
          "type": "bytes32"
        }
      ],
      "name": "getSignData",
      "outputs": [
        {
          "name": "",
          "type": "bytes"
        }
      ],
      "payable": false,
      "stateMutability": "view",
      "type": "function"
    },
    {
      "constant": true,
      "inputs": [],
      "name": "getPartyId",
      "outputs": [
        {
          "name": "",
          "type": "uint256"
        }
      ],
      "payable": false,
      "stateMutability": "view",
      "type": "function"
    }
  ],
  "bytecode": "0x60806040523480156200001157600080fd5b50604051620014cf380380620014cf833981810160405260808110156200003757600080fd5b81516020830151604084018051929491938201926401000000008111156200005e57600080fd5b820160208101848111156200007257600080fd5b81518560208202830111640100000000821117156200009057600080fd5b5050602090910151909250905063ffffffff8316620000ae57600080fd5b8263ffffffff168463ffffffff1610620000c757600080fd5b8263ffffffff16825114620000db57600080fd5b601080546001600160a01b0319166001600160a01b0383161790556001600f819055600c805460ff19169055600090815263ffffffff8581167ffd54ff1ed53f34a900b24c5ba64f85761163b5d82d98a47b9bd80e45466993c555600e60205284167fa7c5ba7114a813b50159add3a36832908dc83db71d0b9a24c2ad0f83be9582075560408051606081019091528351909182918591906200017a57fe5b6020908102919091018101516001600160a01b039081168352600183830181905260006040948501819052855181546001600160a01b03191693169290921782559184015190915591015160025582516200021d918491620001d857fe5b602090810291909101810151604080516060810182526000546001600160a01b031681526001549381019390935260025490830152906001600160e01b036200035616565b60015b8363ffffffff168110156200031f57620002928382815181106200024057fe5b602002602001015160405180606001604052808685815181106200026057fe5b60200260200101516001600160a01b031681526020018460010181526020016000801b8152506200035660201b60201c565b6000620002bc846001840381518110620002a857fe5b6020026020010151620003d060201b60201c565b9050600f54848381518110620002ce57fe5b602090810291909101810151604080518084019490945260609190911b6001600160601b03191683820152805180840360340181526054909301905281519101206002919091015560010162000220565b50600f546040517febad8099c467528a56c98b63c8d476d251cf1ffb4c75db94b4d23fa2b6a1e33590600090a25050505062000435565b600f546040805160208082019390935260609490941b6001600160601b031916848201528051808503603401815260549094018152835193820193909320600090815260038252839020825181546001600160a01b0319166001600160a01b03909116178155908201516001820155910151600290910155565b6000620003e682600f54620003ec60201b60201c565b92915050565b6040805160208082019390935260609390931b6001600160601b031916838201528051808403603401815260549093018152825192820192909220600090815260039091522090565b61108a80620004456000396000f3fe608060405234801561001057600080fd5b506004361061011d5760003560e01c80630c55699c146101225780630d8d64c31461013c5780632591018b146101e95780632c63b321146102065780632fb0fc6f1461022957806331eb7a1a1461023157806355a373d61461024e57806361dd123e146102725780636de0fb4a146103045780636defbf801461032d57806370651a181461034957806374ce45e1146103665780637ad5f33d146103835780638651dc1e146103a0578063900cf0cf146103c357806393daa26a146103cb57806399648b32146104765780639f2a394914610493578063a56dfe4a14610543578063c0fa5e061461054b578063ddc42ebc14610590578063ec95bfe7146105ad578063ff112667146105ca575b600080fd5b61012a6105ed565b60408051918252519081900360200190f35b6101e76004803603604081101561015257600080fd5b81359190810190604081016020820135600160201b81111561017357600080fd5b82018360208201111561018557600080fd5b803590602001918460018302840111600160201b831117156101a657600080fd5b91908080601f0160208091040260200160405190810160405280939291908181526020018383808284376000920191909152509295506105f3945050505050565b005b61012a600480360360208110156101ff57600080fd5b503561067c565b6101e76004803603604081101561021c57600080fd5b508035906020013561068e565b61012a610837565b61012a6004803603602081101561024757600080fd5b503561084c565b61025661085e565b604080516001600160a01b039092168252519081900360200190f35b61028f6004803603602081101561028857600080fd5b503561086d565b6040805160208082528351818301528351919283929083019185019080838360005b838110156102c95781810151838201526020016102b1565b50505050905090810190601f1680156102f65780820380516001836020036101000a031916815260200191505b509250505060405180910390f35b61028f6004803603606081101561031a57600080fd5b5080359060208101359060400135610908565b6103356109e6565b604080519115158252519081900360200190f35b61012a6004803603602081101561035f57600080fd5b50356109ef565b6101e76004803603602081101561037c57600080fd5b5035610a01565b61012a6004803603602081101561039957600080fd5b5035610a10565b6101e7600480360360408110156103b657600080fd5b5080359060200135610a22565b61012a610bae565b6101e7600480360360408110156103e157600080fd5b81359190810190604081016020820135600160201b81111561040257600080fd5b82018360208201111561041457600080fd5b803590602001918460018302840111600160201b8311171561043557600080fd5b91908080601f016020809104026020016040519081016040528093929190818152602001838380828437600092019190915250929550610bb4945050505050565b61012a6004803603602081101561048c57600080fd5b5035610cef565b6101e7600480360360608110156104a957600080fd5b813591602081013591810190606081016040820135600160201b8111156104cf57600080fd5b8201836020820111156104e157600080fd5b803590602001918460018302840111600160201b8311171561050257600080fd5b91908080601f016020809104026020016040519081016040528093929190818152602001838380828437600092019190915250929550610d01945050505050565b61012a610dde565b6105686004803603602081101561056157600080fd5b5035610de4565b604080516001600160a01b039094168452602084019290925282820152519081900360600190f35b61028f600480360360208110156105a657600080fd5b5035610e0f565b610335600480360360208110156105c357600080fd5b5035610e77565b61028f600480360360408110156105e057600080fd5b5080359060200135610e8c565b600a5481565b60006105fe33610f60565b905080600101546000141561061257600080fd5b600c5460ff161561062257600080fd5b600f5460018201546040805160208082019490945280820187905260608082019390935281518082039093018352608001815281519183019190912060009081526004835220835161067692850190610fbd565b50505050565b60056020526000908152604090205481565b600061069a3383610f74565b90508060010154600014156106ae57600080fd5b600c5460ff166106bd57600080fd5b6000828152600d60209081526040808320548151808401879052808301889052825180820384018152606090910183528051908401208452600790925290912054111561074a576040805162461bcd60e51b8152602060048201526016602482015275416c726561647920656e6f756768207369676e65727360501b604482015290519081900360640190fd5b6040805160208082018590528183018690528251808303840181526060830184528051908201206000908152600780835284822080546001908101918290558701546080860189905260a086018a905260c0808701919091528651808703909101815260e0860187528051908501208352600984528583205561010084018790526101208085018990528551808603909101815261014085018087528151918501919091208352925283902054908590526101608201529051849133917f0241f8405c07cef23d7f0c436e722ead63bf1d1a54f5e956d61c4d49abe9161a918190036101800190a3505050565b600061084233610f60565b6001015490505b90565b600d6020526000908152604090205481565b6010546001600160a01b031681565b60066020908152600091825260409182902080548351601f6002600019610100600186161502019093169290920491820184900484028101840190945280845290918301828280156109005780601f106108d557610100808354040283529160200191610900565b820191906000526020600020905b8154815290600101906020018083116108e357829003601f168201915b505050505081565b600f5460408051602080820193909352808201859052606080820187905260808083018690528351808403909101815260a08301808552815191860191909120600090815260068652849020805460026001821615610100026000190190911604601f8101879004909602840160c0908101909552858252919490939192909101828280156109d85780601f106109ad576101008083540402835291602001916109d8565b820191906000526020600020905b8154815290600101906020018083116109bb57829003601f168201915b505050505090509392505050565b600c5460ff1681565b600e6020526000908152604090205481565b610a0d81600f5461068e565b50565b60096020526000908152604090205481565b6000610a2d33610f60565b9050806001015460001415610a4157600080fd5b600f54600182015460408051602080820194909452808201929092526060820186905260808083018690528151808403909101815260a090920181528151918301919091206000908152600890925290205460ff1615610aa057600080fd5b600f805460018381015460408051602080820195909552808201929092526060820188905260808083018890528151808403909101815260a083018252805190850120600090815260088552818120805460ff1916851790559454808652600e85528186205460c084019190915260e0830189905261010080840189905282518085039091018152610120909301825282519285019290922085526005909352919092208054909201918290551415610ba957600a839055600b829055600c805460ff19166001179055600f54604080518581526020810185905281517fd5142d1199af83907992e45da5956bcd2b7656960404acb6b52c57f2001d4c34929181900390910190a25b505050565b600f5481565b601054604080516323b872dd60e01b81523360048201523060248201526044810185905290516001600160a01b03909216916323b872dd916064808201926020929091908290030181600087803b158015610c0e57600080fd5b505af1158015610c22573d6000803e3d6000fd5b505050506040513d6020811015610c3857600080fd5b505060408051338082529181018490526060602082810182815285519284019290925284517ff5c740acde48c0facbccbf48e65351e42a1e79e6cb26cd5bbb80a545cb38fdc79493869388939192909160808401919086019080838360005b83811015610caf578181015183820152602001610c97565b50505050905090810190601f168015610cdc5780820380516001836020036101000a031916815260200191505b5094505050505060405180910390a15050565b60076020526000908152604090205481565b6000610d0c33610f60565b9050806001015460001415610d2057600080fd5b600c5460ff16610d2f57600080fd5b600f546001820154604080516020808201949094528082018890526060808201939093528151808203909301835260800181528151918301919091206000908152600990925290205480610d8257600080fd5b600f54604080516020808201939093528082018890526060810184905260808082018890528251808303909101815260a09091018252805190830120600090815260068352208451610dd692860190610fbd565b505050505050565b600b5481565b6003602052600090815260409020805460018201546002909201546001600160a01b03909116919083565b60046020908152600091825260409182902080548351601f6002600019610100600186161502019093169290920491820184900484028101840190945280845290918301828280156109005780601f106108d557610100808354040283529160200191610900565b60086020526000908152604090205460ff1681565b600f5460408051602080820193909352808201849052606080820186905282518083038201815260808301808552815191860191909120600090815260048652849020805460026001821615610100026000190190911604601f8101879004909602840160a090810190955285825291949093919290910182828015610f535780601f10610f2857610100808354040283529160200191610f53565b820191906000526020600020905b815481529060010190602001808311610f3657829003601f168201915b5050505050905092915050565b6000610f6e82600f54610f74565b92915050565b6040805160208082019390935260609390931b6001600160601b031916838201528051808403603401815260549093018152825192820192909220600090815260039091522090565b828054600181600116156101000203166002900490600052602060002090601f016020900481019282601f10610ffe57805160ff191683800117855561102b565b8280016001018555821561102b579182015b8281111561102b578251825591602001919060010190611010565b5061103792915061103b565b5090565b61084991905b80821115611037576000815560010161104156fea265627a7a72305820ab8330caf125a47759a427b25b2eca3175d4f84173a19ed2c2ecaba788842ec364736f6c63430005090032",
  "source": "pragma solidity ^0.5.0;\nimport './openzeppelin-solidity/contracts/token/ERC20/IERC20.sol';\n\ncontract SharedDB {\n    struct Validator {\n        address addr;\n        uint partyId;\n        bytes32 next;\n    }\n\n    event NewEpoch(uint indexed epoch);\n    event KeygenCompleted(uint indexed epoch, uint x, uint y);\n    event Signup(address indexed from, bytes32 indexed hash, uint epoch, uint partyId);\n\n    Validator validator;\n    mapping(bytes32 => Validator) public dbValidator;\n    mapping(bytes32 => bytes) public dbKeygen;\n    mapping(bytes32 => uint) public confirmationsCount;\n    mapping(bytes32 => bytes) public dbSign;\n    mapping(bytes32 => uint) public signupsCount;\n    mapping(bytes32 => bool) public confirmations;\n    mapping(bytes32 => uint) public dbSignups;\n\n    uint public x;\n    uint public y;\n\n    bool public ready;\n\n    mapping(uint => uint) public threshold;\n    mapping(uint => uint) public parties;\n\n    uint public epoch;\n\n    constructor(uint32 _threshold, uint32 _parties, address[] memory validators, address _tokenContract) public {\n        require(_parties > 0);\n        require(_threshold < _parties);\n        require(validators.length == _parties);\n\n        tokenContract = IERC20(_tokenContract);\n\n        epoch = 1;\n        ready = false;\n\n        threshold[epoch] = _threshold;\n        parties[epoch] = _parties;\n        // First validator\n        validator = Validator(validators[0], 1, 0);\n        setValidator(validators[0], validator);\n\n        // Other validators\n        for (uint i = 1; i < _parties; i++) {\n            setValidator(validators[i], Validator(validators[i], i + 1, 0));\n            // Link to prev one\n            Validator storage v = getValidator(validators[i - 1]);\n            v.next = keccak256(abi.encodePacked(epoch, validators[i]));\n        }\n\n        emit NewEpoch(epoch);\n    }\n\n    IERC20 public tokenContract;\n\n    event ReceivedTokens(address from, string recipient, uint value);\n\n    function requestAffirmation(uint value, string memory recipient) public {\n        tokenContract.transferFrom(msg.sender, address(this), value);\n\n        emit ReceivedTokens(msg.sender, recipient, value);\n    }\n\n    function confirm(uint _x, uint _y) public {\n        Validator storage v = getValidator(msg.sender);\n        require(v.partyId != 0);\n        require(!confirmations[keccak256(abi.encodePacked(epoch, v.partyId, _x, _y))]);\n\n        confirmations[keccak256(abi.encodePacked(epoch, v.partyId, _x, _y))] = true;\n        if (++confirmationsCount[keccak256(abi.encodePacked(epoch, _x, _y))] == parties[epoch]) {\n            x = _x;\n            y = _y;\n            ready = true;\n            emit KeygenCompleted(epoch, x, y);\n        }\n    }\n\n    function setKeygenData(bytes32 key, bytes memory data) public {\n        Validator storage v = getValidator(msg.sender);\n        require(v.partyId != 0);\n        require(!ready);\n\n        dbKeygen[keccak256(abi.encodePacked(epoch, key, v.partyId))] = data;\n    }\n\n    function getKeygenData(uint fromPartyId, bytes32 key) view public returns (bytes memory) {\n        return dbKeygen[keccak256(abi.encodePacked(epoch, key, fromPartyId))];\n    }\n\n    function signupSign(bytes32 hash) public {\n        signupSign(hash, epoch);\n    }\n\n    function signupSign(bytes32 hash, uint _epoch) public {\n        Validator storage v = getValidator(msg.sender, _epoch);\n        require(v.partyId != 0);\n        require(ready);\n        require(signupsCount[keccak256(abi.encodePacked(_epoch, hash))] <= threshold[_epoch], \"Already enough signers\");\n        //require(confirmationsCount[keccak256(abi.encodePacked(_epoch, x, y))] == parties[_epoch]); == ready\n\n        dbSignups[keccak256(abi.encodePacked(_epoch, hash, v.partyId))] = ++signupsCount[keccak256(abi.encodePacked(_epoch, hash))];\n\n        emit Signup(msg.sender, hash, _epoch, signupsCount[keccak256(abi.encodePacked(_epoch, hash))]);\n    }\n\n    function setSignData(bytes32 hash, bytes32 key, bytes memory data) public {\n        Validator storage v = getValidator(msg.sender);\n        require(v.partyId != 0);\n        require(ready);\n        uint signupId = dbSignups[keccak256(abi.encodePacked(epoch, hash, v.partyId))];\n        require(signupId != 0);\n\n        dbSign[keccak256(abi.encodePacked(epoch, hash, signupId, key))] = data;\n    }\n\n    function getSignData(uint signupId, bytes32 hash, bytes32 key) view public returns (bytes memory) {\n        //uint id = dbSignups[keccak256(abi.encodePacked(epoch, hash, fromPartyId))];\n        return dbSign[keccak256(abi.encodePacked(epoch, hash, signupId, key))];\n    }\n\n    function setValidator(address a, Validator memory v) private {\n        dbValidator[keccak256(abi.encodePacked(epoch, a))] = v;\n    }\n\n    function getValidator(address a) view private returns (Validator storage) {\n        return getValidator(a, epoch);\n    }\n\n    function getValidator(address a, uint kv) view private returns (Validator storage) {\n        return dbValidator[keccak256(abi.encodePacked(kv, a))];\n    }\n\n    function getPartyId() view public returns (uint) {\n        return getValidator(msg.sender).partyId;\n    }\n}\n",
  "sourcePath": "/Users/kirillfedoseev/Innopolis/My own projects/bridge/bridge/src/deploy/contracts/SharedDB.sol",
  "compiler": {
    "name": "solc",
    "version": "0.5.9+commit.e560f70d.Emscripten.clang"
  },
  "schemaVersion": "3.0.10",
  "updatedAt": "2019-07-03T18:43:48.331Z",
  "devdoc": {
    "methods": {}
  },
  "userdoc": {
    "methods": {}
  }
}