{
  "contractName": "Bridge",
  "abi": [
    {
      "constant": true,
      "inputs": [],
      "name": "status",
      "outputs": [
        {
          "name": "",
          "type": "uint8"
        }
      ],
      "payable": false,
      "stateMutability": "view",
      "type": "function"
    },
    {
      "constant": true,
      "inputs": [
        {
          "name": "",
          "type": "bytes32"
        }
      ],
      "name": "usedRange",
      "outputs": [
        {
          "name": "",
          "type": "bool"
        }
      ],
      "payable": false,
      "stateMutability": "view",
      "type": "function"
    },
    {
      "constant": true,
      "inputs": [
        {
          "name": "",
          "type": "bytes32"
        }
      ],
      "name": "votes",
      "outputs": [
        {
          "name": "",
          "type": "bool"
        }
      ],
      "payable": false,
      "stateMutability": "view",
      "type": "function"
    },
    {
      "constant": true,
      "inputs": [
        {
          "name": "",
          "type": "bytes32"
        }
      ],
      "name": "dbTransfer",
      "outputs": [
        {
          "name": "",
          "type": "bool"
        }
      ],
      "payable": false,
      "stateMutability": "view",
      "type": "function"
    },
    {
      "constant": true,
      "inputs": [],
      "name": "tokenContract",
      "outputs": [
        {
          "name": "",
          "type": "address"
        }
      ],
      "payable": false,
      "stateMutability": "view",
      "type": "function"
    },
    {
      "constant": true,
      "inputs": [],
      "name": "epoch",
      "outputs": [
        {
          "name": "",
          "type": "uint256"
        }
      ],
      "payable": false,
      "stateMutability": "view",
      "type": "function"
    },
    {
      "constant": true,
      "inputs": [
        {
          "name": "",
          "type": "bytes32"
        }
      ],
      "name": "votesCount",
      "outputs": [
        {
          "name": "",
          "type": "uint256"
        }
      ],
      "payable": false,
      "stateMutability": "view",
      "type": "function"
    },
    {
      "constant": true,
      "inputs": [],
      "name": "nextEpoch",
      "outputs": [
        {
          "name": "",
          "type": "uint256"
        }
      ],
      "payable": false,
      "stateMutability": "view",
      "type": "function"
    },
    {
      "constant": true,
      "inputs": [
        {
          "name": "",
          "type": "bytes32"
        }
      ],
      "name": "dbTransferCount",
      "outputs": [
        {
          "name": "",
          "type": "uint256"
        }
      ],
      "payable": false,
      "stateMutability": "view",
      "type": "function"
    },
    {
      "inputs": [
        {
          "name": "threshold",
          "type": "uint256"
        },
        {
          "name": "validators",
          "type": "address[]"
        },
        {
          "name": "_tokenContract",
          "type": "address"
        },
        {
          "name": "limits",
          "type": "uint256[2]"
        },
        {
          "name": "rangeSize",
          "type": "uint256"
        }
      ],
      "payable": false,
      "stateMutability": "nonpayable",
      "type": "constructor"
    },
    {
      "anonymous": false,
      "inputs": [
        {
          "indexed": false,
          "name": "value",
          "type": "uint256"
        },
        {
          "indexed": false,
          "name": "nonce",
          "type": "uint256"
        }
      ],
      "name": "ExchangeRequest",
      "type": "event"
    },
    {
      "anonymous": false,
      "inputs": [
        {
          "indexed": true,
          "name": "oldEpoch",
          "type": "uint256"
        },
        {
          "indexed": true,
          "name": "newEpoch",
          "type": "uint256"
        }
      ],
      "name": "NewEpoch",
      "type": "event"
    },
    {
      "anonymous": false,
      "inputs": [
        {
          "indexed": true,
          "name": "epoch",
          "type": "uint256"
        }
      ],
      "name": "NewEpochCancelled",
      "type": "event"
    },
    {
      "anonymous": false,
      "inputs": [
        {
          "indexed": true,
          "name": "oldEpoch",
          "type": "uint256"
        },
        {
          "indexed": true,
          "name": "newEpoch",
          "type": "uint256"
        }
      ],
      "name": "NewFundsTransfer",
      "type": "event"
    },
    {
      "anonymous": false,
      "inputs": [
        {
          "indexed": true,
          "name": "epoch",
          "type": "uint256"
        },
        {
          "indexed": false,
          "name": "x",
          "type": "uint256"
        },
        {
          "indexed": false,
          "name": "y",
          "type": "uint256"
        }
      ],
      "name": "EpochStart",
      "type": "event"
    },
    {
      "constant": false,
      "inputs": [
        {
          "name": "value",
          "type": "uint256"
        }
      ],
      "name": "exchange",
      "outputs": [],
      "payable": false,
      "stateMutability": "nonpayable",
      "type": "function"
    },
    {
      "constant": false,
      "inputs": [
        {
          "name": "hash",
          "type": "bytes32"
        },
        {
          "name": "to",
          "type": "address"
        },
        {
          "name": "value",
          "type": "uint256"
        }
      ],
      "name": "transfer",
      "outputs": [],
      "payable": false,
      "stateMutability": "nonpayable",
      "type": "function"
    },
    {
      "constant": false,
      "inputs": [
        {
          "name": "x",
          "type": "uint256"
        },
        {
          "name": "y",
          "type": "uint256"
        }
      ],
      "name": "confirmKeygen",
      "outputs": [],
      "payable": false,
      "stateMutability": "nonpayable",
      "type": "function"
    },
    {
      "constant": false,
      "inputs": [],
      "name": "confirmFundsTransfer",
      "outputs": [],
      "payable": false,
      "stateMutability": "nonpayable",
      "type": "function"
    },
    {
      "constant": true,
      "inputs": [],
      "name": "getNextParties",
      "outputs": [
        {
          "name": "",
          "type": "uint256"
        }
      ],
      "payable": false,
      "stateMutability": "view",
      "type": "function"
    },
    {
      "constant": true,
      "inputs": [],
      "name": "getParties",
      "outputs": [
        {
          "name": "",
          "type": "uint256"
        }
      ],
      "payable": false,
      "stateMutability": "view",
      "type": "function"
    },
    {
      "constant": true,
      "inputs": [
        {
          "name": "_epoch",
          "type": "uint256"
        }
      ],
      "name": "getParties",
      "outputs": [
        {
          "name": "",
          "type": "uint256"
        }
      ],
      "payable": false,
      "stateMutability": "view",
      "type": "function"
    },
    {
      "constant": true,
      "inputs": [],
      "name": "getNextThreshold",
      "outputs": [
        {
          "name": "",
          "type": "uint256"
        }
      ],
      "payable": false,
      "stateMutability": "view",
      "type": "function"
    },
    {
      "constant": true,
      "inputs": [],
      "name": "getThreshold",
      "outputs": [
        {
          "name": "",
          "type": "uint256"
        }
      ],
      "payable": false,
      "stateMutability": "view",
      "type": "function"
    },
    {
      "constant": true,
      "inputs": [
        {
          "name": "_epoch",
          "type": "uint256"
        }
      ],
      "name": "getThreshold",
      "outputs": [
        {
          "name": "",
          "type": "uint256"
        }
      ],
      "payable": false,
      "stateMutability": "view",
      "type": "function"
    },
    {
      "constant": true,
      "inputs": [],
      "name": "getStartBlock",
      "outputs": [
        {
          "name": "",
          "type": "uint256"
        }
      ],
      "payable": false,
      "stateMutability": "view",
      "type": "function"
    },
    {
      "constant": true,
      "inputs": [
        {
          "name": "_epoch",
          "type": "uint256"
        }
      ],
      "name": "getStartBlock",
      "outputs": [
        {
          "name": "",
          "type": "uint256"
        }
      ],
      "payable": false,
      "stateMutability": "view",
      "type": "function"
    },
    {
      "constant": true,
      "inputs": [],
      "name": "getNextRangeSize",
      "outputs": [
        {
          "name": "",
          "type": "uint256"
        }
      ],
      "payable": false,
      "stateMutability": "view",
      "type": "function"
    },
    {
      "constant": true,
      "inputs": [
        {
          "name": "_epoch",
          "type": "uint256"
        }
      ],
      "name": "getRangeSize",
      "outputs": [
        {
          "name": "",
          "type": "uint256"
        }
      ],
      "payable": false,
      "stateMutability": "view",
      "type": "function"
    },
    {
      "constant": true,
      "inputs": [],
      "name": "getRangeSize",
      "outputs": [
        {
          "name": "",
          "type": "uint256"
        }
      ],
      "payable": false,
      "stateMutability": "view",
      "type": "function"
    },
    {
      "constant": true,
      "inputs": [
        {
          "name": "_epoch",
          "type": "uint256"
        }
      ],
      "name": "getNonce",
      "outputs": [
        {
          "name": "",
          "type": "uint256"
        }
      ],
      "payable": false,
      "stateMutability": "view",
      "type": "function"
    },
    {
      "constant": true,
      "inputs": [],
      "name": "getNonce",
      "outputs": [
        {
          "name": "",
          "type": "uint256"
        }
      ],
      "payable": false,
      "stateMutability": "view",
      "type": "function"
    },
    {
      "constant": true,
      "inputs": [],
      "name": "getX",
      "outputs": [
        {
          "name": "",
          "type": "uint256"
        }
      ],
      "payable": false,
      "stateMutability": "view",
      "type": "function"
    },
    {
      "constant": true,
      "inputs": [],
      "name": "getY",
      "outputs": [
        {
          "name": "",
          "type": "uint256"
        }
      ],
      "payable": false,
      "stateMutability": "view",
      "type": "function"
    },
    {
      "constant": true,
      "inputs": [],
      "name": "getPartyId",
      "outputs": [
        {
          "name": "",
          "type": "uint256"
        }
      ],
      "payable": false,
      "stateMutability": "view",
      "type": "function"
    },
    {
      "constant": true,
      "inputs": [
        {
          "name": "a",
          "type": "address"
        }
      ],
      "name": "getNextPartyId",
      "outputs": [
        {
          "name": "",
          "type": "uint256"
        }
      ],
      "payable": false,
      "stateMutability": "view",
      "type": "function"
    },
    {
      "constant": true,
      "inputs": [],
      "name": "getValidators",
      "outputs": [
        {
          "name": "",
          "type": "address[]"
        }
      ],
      "payable": false,
      "stateMutability": "view",
      "type": "function"
    },
    {
      "constant": true,
      "inputs": [],
      "name": "getNextValidators",
      "outputs": [
        {
          "name": "",
          "type": "address[]"
        }
      ],
      "payable": false,
      "stateMutability": "view",
      "type": "function"
    },
    {
      "constant": false,
      "inputs": [],
      "name": "startVoting",
      "outputs": [],
      "payable": false,
      "stateMutability": "nonpayable",
      "type": "function"
    },
    {
      "constant": false,
      "inputs": [
        {
          "name": "validator",
          "type": "address"
        }
      ],
      "name": "voteAddValidator",
      "outputs": [],
      "payable": false,
      "stateMutability": "nonpayable",
      "type": "function"
    },
    {
      "constant": false,
      "inputs": [
        {
          "name": "validator",
          "type": "address"
        }
      ],
      "name": "voteRemoveValidator",
      "outputs": [],
      "payable": false,
      "stateMutability": "nonpayable",
      "type": "function"
    },
    {
      "constant": false,
      "inputs": [
        {
          "name": "threshold",
          "type": "uint256"
        }
      ],
      "name": "voteChangeThreshold",
      "outputs": [],
      "payable": false,
      "stateMutability": "nonpayable",
      "type": "function"
    },
    {
      "constant": false,
      "inputs": [
        {
          "name": "rangeSize",
          "type": "uint256"
        }
      ],
      "name": "voteChangeRangeSize",
      "outputs": [],
      "payable": false,
      "stateMutability": "nonpayable",
      "type": "function"
    },
    {
      "constant": false,
      "inputs": [],
      "name": "voteStartKeygen",
      "outputs": [],
      "payable": false,
      "stateMutability": "nonpayable",
      "type": "function"
    },
    {
      "constant": false,
      "inputs": [],
      "name": "voteCancelKeygen",
      "outputs": [],
      "payable": false,
      "stateMutability": "nonpayable",
      "type": "function"
    }
  ],
  "bytecode": "0x60806040523480156200001157600080fd5b5060405162001f4838038062001f48833981810160405260c08110156200003757600080fd5b8151602083018051919392830192916401000000008111156200005957600080fd5b820160208101848111156200006d57600080fd5b81518560208202830111640100000000821117156200008b57600080fd5b505060208201516080830151825192955090935060409092019190620000b057600080fd5b83518510620000be57600080fd5b600b80546001600160a01b0385166001600160a01b0319909116179055600060078190556006805460ff19166002179055600160088190556040805160e08101825287815260208082018a905291810185905260608101849052600019608082015260a0810184905260c081018490529183529182528051805191927fada5013122d395ba3c54772283fb069b10426056ef8ca54750cb9bb552a59e7d926200016b9284920190620001f9565b506020820151600182015560408201516002820155606082015160038201556080820151600482015560a0820151600582015560c09091015160069091015581600060200201516009558160016020020151600a556040516001906000907f3ef85928df9ae51bdb3eb4c00ec73b92b82307f319ac1b029de14796a0972609908290a350505050506200028d565b82805482825590600052602060002090810192821562000251579160200282015b828111156200025157825182546001600160a01b0319166001600160a01b039091161782556020909201916001909101906200021a565b506200025f92915062000263565b5090565b6200028a91905b808211156200025f5780546001600160a01b03191681556001016200026a565b90565b611cab806200029d6000396000f3fe608060405234801561001057600080fd5b50600436106101cd5760003560e01c806301b2320e146101d2578063073ce82d146102015780630b7f166514610209578063197d6ca4146102115780631ec6b60a14610237578063200d2ed2146102415780632493b9fc1461026d5780632a2acafa1461028a5780632a4b93af146102bb5780632b38cd96146102c35780632fb0fc6f146102e057806339f0ebb1146102e85780633d46b819146102f05780633feb1bd81461030d57806340cddab31461033f578063447fe289146103975780634615d5e9146103b457806349f92f63146103d15780635197c7aa146103ee57806353556559146103f657806355a373d61461041357806357456f22146104375780638199d3fd1461045d578063900cf0cf14610465578063915eb0e71461046d5780639bf6a74a14610475578063a5f18c011461049b578063a7699d02146104a3578063a8311aa8146104c6578063aae46bab146104ce578063aea0e78b146104eb578063b7ab4db5146104f3578063c2668caf146104fb578063c3e3a45c14610503578063cc8ee06514610520578063d087d2881461053d578063d09fc00414610545578063df78523014610562578063e75235b81461056a575b600080fd5b6101ef600480360360208110156101e857600080fd5b5035610572565b60408051918252519081900360200190f35b6101ef61058a565b6101ef61059d565b6101ef6004803603602081101561022757600080fd5b50356001600160a01b03166105b5565b61023f610620565b005b610249610778565b6040518082600381111561025957fe5b60ff16815260200191505060405180910390f35b61023f6004803603602081101561028357600080fd5b5035610781565b6102a7600480360360208110156102a057600080fd5b5035610846565b604080519115158252519081900360200190f35b6101ef61085b565b6102a7600480360360208110156102d957600080fd5b5035610868565b6101ef61087d565b61023f6108e7565b6101ef6004803603602081101561030657600080fd5b50356109d3565b61023f6004803603606081101561032357600080fd5b508035906001600160a01b0360208201351690604001356109e8565b610347610b48565b60408051602080825283518183015283519192839290830191858101910280838360005b8381101561038357818101518382015260200161036b565b505050509050019250505060405180910390f35b6101ef600480360360208110156103ad57600080fd5b5035610bb3565b6101ef600480360360208110156103ca57600080fd5b5035610bc5565b6102a7600480360360208110156103e757600080fd5b5035610bda565b6101ef610bef565b61023f6004803603602081101561040c57600080fd5b5035610c07565b61041b610e1c565b604080516001600160a01b039092168252519081900360200190f35b61023f6004803603602081101561044d57600080fd5b50356001600160a01b0316610e2b565b6101ef610f63565b6101ef610f70565b61023f610f76565b61023f6004803603602081101561048b57600080fd5b50356001600160a01b031661105d565b6101ef611164565b61023f600480360360408110156104b957600080fd5b5080359060200135611171565b6101ef611304565b6101ef600480360360208110156104e457600080fd5b5035611311565b6101ef611323565b610347611329565b6101ef611392565b6101ef6004803603602081101561051957600080fd5b503561139b565b61023f6004803603602081101561053657600080fd5b50356113b0565b6101ef611471565b6101ef6004803603602081101561055b57600080fd5b503561147e565b61023f611490565b6101ef6115fc565b6000818152602081905260409020600301545b919050565b6000610597600854610bb3565b90505b90565b60075460009081526020819052604090206006015490565b600060606105c1610b48565b905060005b6105ce61058a565b81101561061657836001600160a01b03168282815181106105eb57fe5b60200260200101516001600160a01b0316141561060e5760010191506105859050565b6001016105c6565b5060009392505050565b600060065460ff16600381111561063357fe5b148061064f5750600160065460ff16600381111561064d57fe5b145b61069f576040805162461bcd60e51b815260206004820152601c60248201527b4e6f7420696e207265616479206f7220766f74696e6720737461746560201b604482015290519081900360640190fd5b6106a761087d565b6106e6576040805162461bcd60e51b81526020600482015260176024820152600080516020611c57833981519152604482015290519081900360640190fd5b6106f06002611609565b15610776576008805460019081019091556006805460ff191690911790556107166115fc565b600854600090815260208190526040902060010155610733611329565b60085460009081526020818152604090912082516107579391929190910190611b27565b5061076061085b565b6008546000908152602081905260409020600201555b565b60065460ff1681565b600160065460ff16600381111561079457fe5b146107d4576040805162461bcd60e51b81526020600482015260136024820152600080516020611c0f833981519152604482015290519081900360640190fd5b6107dc61087d565b61081b576040805162461bcd60e51b81526020600482015260176024820152600080516020611c57833981519152604482015290519081900360640190fd5b610826600682611660565b156108435760085460009081526020819052604090206002018190555b50565b60056020526000908152604090205460ff1681565b600061059760075461139b565b60046020526000908152604090205460ff1681565b60006060610889611329565b905060005b610896611304565b8110156108de57336001600160a01b03168282815181106108b357fe5b60200260200101516001600160a01b031614156108d657600101915061059a9050565b60010161088e565b50600091505090565b600260065460ff1660038111156108fa57fe5b14610942576040805162461bcd60e51b81526020600482015260136024820152724e6f7420696e206b657967656e20737461746560681b604482015290519081900360640190fd5b61094a61087d565b610989576040805162461bcd60e51b81526020600482015260176024820152600080516020611c57833981519152604482015290519081900360640190fd5b6109936008611609565b15610776576006805460ff191660011790556008546040517fddbb65cfe1ae4aec03cef0f9667c6d7ba3740927d0c60f4dd4d7104cc31d180a90600090a2565b60009081526020819052604090206004015490565b600060065460ff1660038111156109fb57fe5b1480610a175750600160065460ff166003811115610a1557fe5b145b610a67576040805162461bcd60e51b815260206004820152601c60248201527b4e6f7420696e207265616479206f7220766f74696e6720737461746560201b604482015290519081900360640190fd5b610a6f61087d565b610aae576040805162461bcd60e51b81526020600482015260176024820152600080516020611c57833981519152604482015290519081900360640190fd5b610abb60098484846116c0565b15610b4357600b546040805163a9059cbb60e01b81526001600160a01b038581166004830152602482018590529151919092169163a9059cbb9160448083019260209291908290030181600087803b158015610b1657600080fd5b505af1158015610b2a573d6000803e3d6000fd5b505050506040513d6020811015610b4057600080fd5b50505b505050565b60085460009081526020818152604091829020805483518184028101840190945280845260609392830182828015610ba957602002820191906000526020600020905b81546001600160a01b03168152600190910190602001808311610b8b575b5050505050905090565b60009081526020819052604090205490565b60009081526020819052604090206001015490565b60026020526000908152604090205460ff1681565b60075460009081526020819052604090206005015490565b600060065460ff166003811115610c1a57fe5b14610c61576040805162461bcd60e51b81526020600482015260126024820152714e6f7420696e20726561647920737461746560701b604482015290519081900360640190fd5b6009548110158015610c7857506402540be4008110155b8015610c865750600a548111155b610c8f57600080fd5b6000610c9961085b565b610ca1611164565b430381610caa57fe5b60075460408051939092046020808501829052848401929092528251808503840181526060909401835283519382019390932060009081526005909152205490915060ff16610d4f57600780546040805160208082018690528183019390935281518082038301815260609091018252805190830120600090815260058352818120805460ff1916600190811790915593548152918290529020600401805490910190555b600b54604080516323b872dd60e01b81523360048201523060248201526044810185905290516001600160a01b03909216916323b872dd916064808201926020929091908290030181600087803b158015610da957600080fd5b505af1158015610dbd573d6000803e3d6000fd5b505050506040513d6020811015610dd357600080fd5b507f9273b6f22cee1ef3d7cdc2a9c031936003526bae368886259511f7dd40044b02905082610e00611471565b6040805192835260208301919091528051918290030190a15050565b600b546001600160a01b031681565b600160065460ff166003811115610e3e57fe5b14610e7e576040805162461bcd60e51b81526020600482015260136024820152600080516020611c0f833981519152604482015290519081900360640190fd5b610e8661087d565b610ec5576040805162461bcd60e51b81526020600482015260176024820152600080516020611c57833981519152604482015290519081900360640190fd5b610ece816105b5565b15610f16576040805162461bcd60e51b815260206004820152601360248201527220b63932b0b23c9030903b30b634b230ba37b960691b604482015290519081900360640190fd5b610f2160038261173d565b15610843576008546000908152602081815260408220805460018101825590835291200180546001600160a01b0383166001600160a01b031990911617905550565b6000610597600854610bc5565b60075481565b600160065460ff166003811115610f8957fe5b14610fc9576040805162461bcd60e51b81526020600482015260136024820152600080516020611c0f833981519152604482015290519081900360640190fd5b610fd161087d565b611010576040805162461bcd60e51b81526020600482015260176024820152600080516020611c57833981519152604482015290519081900360640190fd5b61101a6007611609565b15610776576006805460ff191660021790556008546007546040517f3ef85928df9ae51bdb3eb4c00ec73b92b82307f319ac1b029de14796a097260990600090a3565b600160065460ff16600381111561107057fe5b146110b0576040805162461bcd60e51b81526020600482015260136024820152600080516020611c0f833981519152604482015290519081900360640190fd5b6110b861087d565b6110f7576040805162461bcd60e51b81526020600482015260176024820152600080516020611c57833981519152604482015290519081900360640190fd5b611100816105b5565b61114b576040805162461bcd60e51b815260206004820152601760248201527620b63932b0b23c903737ba1030903b30b634b230ba37b960491b604482015290519081900360640190fd5b61115660048261173d565b1561084357610843816117aa565b6000610597600754610572565b600260065460ff16600381111561118457fe5b146111cc576040805162461bcd60e51b81526020600482015260136024820152724e6f7420696e206b657967656e20737461746560681b604482015290519081900360640190fd5b6111d5336105b5565b61121d576040805162461bcd60e51b81526020600482015260146024820152732737ba1030903732bc3a103b30b634b230ba37b960611b604482015290519081900360640190fd5b611229600083836118e4565b15611300576008805460009081526020819052604080822060050185905582548252902060060182905554600114156112c3576006805460ff191690556008805460009081526020818152604080832043600390910155835483529182902060001960049091015591546007819055815185815292830184905281519092600080516020611bef83398151915292908290030190a2611300565b6006805460ff191660031790556008546007546040517ff4735b85cc98f9a712832825ecab4cfb1649d658f9a73c57a00ea7dde735c79b90600090a35b5050565b6000610597600754610bb3565b60036020526000908152604090205481565b60085481565b60075460009081526020818152604091829020805483518184028101840190945280845260609392830182828015610ba9576020028201919060005260206000209081546001600160a01b03168152600190910190602001808311610b8b575050505050905090565b60006105976008545b60009081526020819052604090206002015490565b600160065460ff1660038111156113c357fe5b14611403576040805162461bcd60e51b81526020600482015260136024820152600080516020611c0f833981519152604482015290519081900360640190fd5b61140b61087d565b61144a576040805162461bcd60e51b81526020600482015260176024820152600080516020611c57833981519152604482015290519081900360640190fd5b611455600582611660565b1561084357600854600090815260208190526040902060010155565b60006105976007546109d3565b60016020526000908152604090205481565b600360065460ff1660038111156114a357fe5b146114f3576040805162461bcd60e51b815260206004820152601b60248201527a4e6f7420696e2066756e6473207472616e7366657220737461746560281b604482015290519081900360640190fd5b6114fb61087d565b61153a576040805162461bcd60e51b81526020600482015260176024820152600080516020611c57833981519152604482015290519081900360640190fd5b60006007541161157b5760405162461bcd60e51b8152600401808060200182810382526028815260200180611c2f6028913960400191505060405180910390fd5b611585600161194d565b15610776576006805460ff191690556008805460009081526020819052604080822043600390910155825482529020600019600490910155546007819055600080516020611bef8339815191526115da610bef565b6115e261059d565b6040805192835260208301919091528051918290030190a2565b6000610597600754610bc5565b600080826008546040516020018083600981111561162357fe5b60ff1660f81b8152600101828152602001925050506040516020818303038152906040528051906020012090506116598161199d565b9392505050565b60008083600854846040516020018084600981111561167b57fe5b60ff1660f81b815260010183815260200182815260200193505050506040516020818303038152906040528051906020012090506116b88161199d565b949350505050565b60008085858585604051602001808560098111156116da57fe5b60ff1660f81b8152600101848152602001836001600160a01b03166001600160a01b031660601b81526014018281526020019450505050506040516020818303038152906040528051906020012090506117338161199d565b9695505050505050565b60008083600854846040516020018084600981111561175857fe5b60ff1660f81b8152600101838152602001826001600160a01b03166001600160a01b031660601b815260140193505050506040516020818303038152906040528051906020012090506116b88161199d565b60005b60016117b761058a565b0381101561188557600854600090815260208190526040902080546001600160a01b0384169190839081106117e857fe5b6000918252602090912001546001600160a01b0316141561187d5761180b610b48565b600161181561058a565b038151811061182057fe5b60200260200101516000806008548152602001908152602001600020600001828154811061184a57fe5b9060005260206000200160006101000a8154816001600160a01b0302191690836001600160a01b03160217905550611885565b6001016117ad565b50600854600090815260208190526040902060016118a161058a565b03815481106118ac57fe5b6000918252602080832090910180546001600160a01b0319169055600854825281905260409020805490611300906000198301611b8c565b6000808460085485856040516020018085600981111561190057fe5b60ff1660f81b815260010184815260200183815260200182815260200194505050505060405160208183030381529060405280519060200120905061194481611a70565b95945050505050565b600080826008546040516020018083600981111561196757fe5b60ff1660f81b81526001018281526020019250505060405160208183030381529060405280519060200120905061165981611a70565b6000806119a983611af8565b60008181526004602052604090205490915060ff1615611a00576040805162461bcd60e51b815260206004820152600d60248201526c566f74656420616c726561647960981b604482015290519081900360640190fd5b6000818152600460205260409020805460ff19166001179055611a216115fc565b6000848152600360205260409020541415611a545750506000818152600360205260409020600160ff1b90556001610585565b5050600081815260036020526040812080546001019055610585565b600080611a7c83611af8565b60008181526004602052604090205490915060ff1615611ad7576040805162461bcd60e51b8152602060048201526011602482015270436f6e6669726d656420616c726561647960781b604482015290519081900360640190fd5b6000818152600460205260409020805460ff19166001179055611a21610f63565b604080516020808201939093523360601b81830152815180820360340181526054909101909152805191012090565b828054828255906000526020600020908101928215611b7c579160200282015b82811115611b7c57825182546001600160a01b0319166001600160a01b03909116178255602090920191600190910190611b47565b50611b88929150611bb0565b5090565b815481835581811115610b4357600083815260209020610b43918101908301611bd4565b61059a91905b80821115611b885780546001600160a01b0319168155600101611bb6565b61059a91905b80821115611b885760008155600101611bda56fec33272939f066c227e913a4b3434d860794f185c551685c29451a3a38b9b259c4e6f7420696e20766f74696e672073746174650000000000000000000000000046697273742065706f636820646f6573206e6f74206e6565642066756e6473207472616e736665724e6f7420612063757272656e742076616c696461746f72000000000000000000a265627a7a72305820dfb70a1c283919f9128aabe00d30be35942e7ded3ecf2eb30af4168b8b02e15a64736f6c63430005090032",
  "source": "pragma solidity ^0.5.0;\n\nimport './openzeppelin-solidity/contracts/token/ERC20/IERC20.sol';\n\ncontract Bridge {\n    event ExchangeRequest(uint value, uint nonce);\n    event NewEpoch(uint indexed oldEpoch, uint indexed newEpoch);\n    event NewEpochCancelled(uint indexed epoch);\n    event NewFundsTransfer(uint indexed oldEpoch, uint indexed newEpoch);\n    event EpochStart(uint indexed epoch, uint x, uint y);\n\n    struct State {\n        address[] validators;\n        uint threshold;\n        uint rangeSize;\n        uint startBlock;\n        uint nonce;\n        uint x;\n        uint y;\n    }\n\n    enum Status {\n        READY, // bridge is in ready to perform operations\n        VOTING, // voting for changing in next epoch, but still ready\n        KEYGEN, //keygen, can be cancelled\n        FUNDS_TRANSFER // funds transfer, cannot be cancelled\n    }\n\n    enum Vote {\n        CONFIRM_KEYGEN,\n        CONFIRM_FUNDS_TRANSFER,\n        START_VOTING,\n        ADD_VALIDATOR,\n        REMOVE_VALIDATOR,\n        CHANGE_THRESHOLD,\n        CHANGE_RANGE_SIZE,\n        START_KEYGEN,\n        CANCEL_KEYGEN,\n        TRANSFER\n    }\n\n    mapping(uint => State) states;\n\n    mapping(bytes32 => uint) public dbTransferCount;\n    mapping(bytes32 => bool) public dbTransfer;\n    mapping(bytes32 => uint) public votesCount;\n    mapping(bytes32 => bool) public votes;\n    mapping(bytes32 => bool) public usedRange;\n\n    Status public status;\n\n    uint public epoch;\n    uint public nextEpoch;\n\n    uint minTxLimit;\n    uint maxTxLimit;\n\n    constructor(uint threshold, address[] memory validators, address _tokenContract, uint[2] memory limits, uint rangeSize) public {\n        require(validators.length > 0);\n        require(threshold < validators.length);\n\n        tokenContract = IERC20(_tokenContract);\n\n        epoch = 0;\n        status = Status.KEYGEN;\n        nextEpoch = 1;\n\n        states[nextEpoch] = State(validators, threshold, rangeSize, 0, uint(-1), 0, 0);\n\n        minTxLimit = limits[0];\n        maxTxLimit = limits[1];\n\n        emit NewEpoch(0, 1);\n    }\n\n    IERC20 public tokenContract;\n\n    modifier ready {\n        require(status == Status.READY, \"Not in ready state\");\n        _;\n    }\n\n    modifier readyOrVoting {\n        require(status == Status.READY || status == Status.VOTING, \"Not in ready or voting state\");\n        _;\n    }\n\n    modifier voting {\n        require(status == Status.VOTING, \"Not in voting state\");\n        _;\n    }\n\n    modifier keygen {\n        require(status == Status.KEYGEN, \"Not in keygen state\");\n        _;\n    }\n\n    modifier fundsTransfer {\n        require(status == Status.FUNDS_TRANSFER, \"Not in funds transfer state\");\n        _;\n    }\n\n    modifier currentValidator {\n        require(getPartyId() != 0, \"Not a current validator\");\n        _;\n    }\n\n    function exchange(uint value) public ready {\n        require(value >= minTxLimit && value >= 10 ** 10 && value <= maxTxLimit);\n\n        uint txRange = (block.number - getStartBlock()) / getRangeSize();\n        if (!usedRange[keccak256(abi.encodePacked(txRange, epoch))]) {\n            usedRange[keccak256(abi.encodePacked(txRange, epoch))] = true;\n            states[epoch].nonce++;\n        }\n\n        tokenContract.transferFrom(msg.sender, address(this), value);\n        emit ExchangeRequest(value, getNonce());\n    }\n\n    function transfer(bytes32 hash, address to, uint value) public readyOrVoting currentValidator {\n        if (tryVote(Vote.TRANSFER, hash, to, value)) {\n            tokenContract.transfer(to, value);\n        }\n    }\n\n    function confirmKeygen(uint x, uint y) public keygen {\n        require(getNextPartyId(msg.sender) != 0, \"Not a next validator\");\n\n        if (tryConfirm(Vote.CONFIRM_KEYGEN, x, y)) {\n            states[nextEpoch].x = x;\n            states[nextEpoch].y = y;\n            if (nextEpoch == 1) {\n                status = Status.READY;\n                states[nextEpoch].startBlock = block.number;\n                states[nextEpoch].nonce = uint(-1);\n                epoch = nextEpoch;\n                emit EpochStart(epoch, x, y);\n            }\n            else {\n                status = Status.FUNDS_TRANSFER;\n                emit NewFundsTransfer(epoch, nextEpoch);\n            }\n        }\n    }\n\n    function confirmFundsTransfer() public fundsTransfer currentValidator {\n        require(epoch > 0, \"First epoch does not need funds transfer\");\n\n        if (tryConfirm(Vote.CONFIRM_FUNDS_TRANSFER)) {\n            status = Status.READY;\n            states[nextEpoch].startBlock = block.number;\n            states[nextEpoch].nonce = uint(-1);\n            epoch = nextEpoch;\n            emit EpochStart(epoch, getX(), getY());\n        }\n    }\n\n    function getParties() view public returns (uint) {\n        return getParties(epoch);\n    }\n\n    function getNextParties() view public returns (uint) {\n        return getParties(nextEpoch);\n    }\n\n    function getParties(uint _epoch) view public returns (uint) {\n        return states[_epoch].validators.length;\n    }\n\n    function getThreshold() view public returns (uint) {\n        return getThreshold(epoch);\n    }\n\n    function getNextThreshold() view public returns (uint) {\n        return getThreshold(nextEpoch);\n    }\n\n    function getThreshold(uint _epoch) view public returns (uint) {\n        return states[_epoch].threshold;\n    }\n\n    function getStartBlock() view public returns (uint) {\n        return getStartBlock(epoch);\n    }\n\n    function getStartBlock(uint _epoch) view public returns (uint) {\n        return states[_epoch].startBlock;\n    }\n\n    function getRangeSize() view public returns (uint) {\n        return getRangeSize(epoch);\n    }\n\n    function getNextRangeSize() view public returns (uint) {\n        return getRangeSize(nextEpoch);\n    }\n\n    function getRangeSize(uint _epoch) view public returns (uint) {\n        return states[_epoch].rangeSize;\n    }\n\n    function getNonce() view public returns (uint) {\n        return getNonce(epoch);\n    }\n\n    function getNonce(uint _epoch) view public returns (uint) {\n        return states[_epoch].nonce;\n    }\n\n    function getX() view public returns (uint) {\n        return states[epoch].x;\n    }\n\n    function getY() view public returns (uint) {\n        return states[epoch].y;\n    }\n\n    function getPartyId() view public returns (uint) {\n        address[] memory validators = getValidators();\n        for (uint i = 0; i < getParties(); i++) {\n            if (validators[i] == msg.sender)\n                return i + 1;\n        }\n        return 0;\n    }\n\n    function getNextPartyId(address a) view public returns (uint) {\n        address[] memory validators = getNextValidators();\n        for (uint i = 0; i < getNextParties(); i++) {\n            if (validators[i] == a)\n                return i + 1;\n        }\n        return 0;\n    }\n\n    function getValidators() view public returns (address[] memory) {\n        return states[epoch].validators;\n    }\n\n    function getNextValidators() view public returns (address[] memory) {\n        return states[nextEpoch].validators;\n    }\n\n    function startVoting() public readyOrVoting currentValidator {\n        if (tryVote(Vote.START_VOTING)) {\n            nextEpoch++;\n            status = Status.VOTING;\n            states[nextEpoch].threshold = getThreshold();\n            states[nextEpoch].validators = getValidators();\n            states[nextEpoch].rangeSize = getRangeSize();\n        }\n    }\n\n    function voteAddValidator(address validator) public voting currentValidator {\n        require(getNextPartyId(validator) == 0, \"Already a validator\");\n\n        if (tryVote(Vote.ADD_VALIDATOR, validator)) {\n            states[nextEpoch].validators.push(validator);\n        }\n    }\n\n    function voteRemoveValidator(address validator) public voting currentValidator {\n        require(getNextPartyId(validator) != 0, \"Already not a validator\");\n\n        if (tryVote(Vote.REMOVE_VALIDATOR, validator)) {\n            _removeValidator(validator);\n        }\n    }\n\n    function _removeValidator(address validator) private {\n        for (uint i = 0; i < getNextParties() - 1; i++) {\n            if (states[nextEpoch].validators[i] == validator) {\n                states[nextEpoch].validators[i] = getNextValidators()[getNextParties() - 1];\n                break;\n            }\n        }\n        delete states[nextEpoch].validators[getNextParties() - 1];\n        states[nextEpoch].validators.length--;\n    }\n\n    function voteChangeThreshold(uint threshold) public voting currentValidator {\n        if (tryVote(Vote.CHANGE_THRESHOLD, threshold)) {\n            states[nextEpoch].threshold = threshold;\n        }\n    }\n\n    function voteChangeRangeSize(uint rangeSize) public voting currentValidator {\n        if (tryVote(Vote.CHANGE_RANGE_SIZE, rangeSize)) {\n            states[nextEpoch].rangeSize = rangeSize;\n        }\n    }\n\n    function voteStartKeygen() public voting currentValidator {\n        if (tryVote(Vote.START_KEYGEN)) {\n            status = Status.KEYGEN;\n\n            emit NewEpoch(epoch, nextEpoch);\n        }\n    }\n\n    function voteCancelKeygen() public keygen currentValidator {\n        if (tryVote(Vote.CANCEL_KEYGEN)) {\n            status = Status.VOTING;\n\n            emit NewEpochCancelled(nextEpoch);\n        }\n    }\n\n    function tryVote(Vote voteType) private returns (bool) {\n        bytes32 vote = keccak256(abi.encodePacked(voteType, nextEpoch));\n        return putVote(vote);\n    }\n\n    function tryVote(Vote voteType, address addr) private returns (bool) {\n        bytes32 vote = keccak256(abi.encodePacked(voteType, nextEpoch, addr));\n        return putVote(vote);\n    }\n\n    function tryVote(Vote voteType, uint num) private returns (bool) {\n        bytes32 vote = keccak256(abi.encodePacked(voteType, nextEpoch, num));\n        return putVote(vote);\n    }\n\n    function tryVote(Vote voteType, bytes32 hash, address to, uint value) private returns (bool) {\n        bytes32 vote = keccak256(abi.encodePacked(voteType, hash, to, value));\n        return putVote(vote);\n    }\n\n    function tryConfirm(Vote voteType) private returns (bool) {\n        bytes32 vote = keccak256(abi.encodePacked(voteType, nextEpoch));\n        return putConfirm(vote);\n    }\n\n    function tryConfirm(Vote voteType, uint x, uint y) private returns (bool) {\n        bytes32 vote = keccak256(abi.encodePacked(voteType, nextEpoch, x, y));\n        return putConfirm(vote);\n    }\n\n    function putVote(bytes32 vote) private returns (bool) {\n        bytes32 personalVote = personalizeVote(vote);\n        require(!votes[personalVote], \"Voted already\");\n\n        votes[personalVote] = true;\n        if (votesCount[vote] == getThreshold()) {\n            votesCount[vote] = 2 ** 255;\n            return true;\n        } else {\n            votesCount[vote]++;\n            return false;\n        }\n    }\n\n    function putConfirm(bytes32 vote) private returns (bool) {\n        bytes32 personalVote = personalizeVote(vote);\n        require(!votes[personalVote], \"Confirmed already\");\n\n        votes[personalVote] = true;\n        if (votesCount[vote] == getNextThreshold()) {\n            votesCount[vote] = 2 ** 255;\n            return true;\n        } else {\n            votesCount[vote]++;\n            return false;\n        }\n    }\n\n    function personalizeVote(bytes32 vote) private view returns (bytes32) {\n        return keccak256(abi.encodePacked(vote, msg.sender));\n    }\n}\n",
  "sourcePath": "/build/contracts/Bridge.sol",
  "compiler": {
    "name": "solc",
    "version": "0.5.9+commit.e560f70d.Emscripten.clang"
  },
  "schemaVersion": "3.0.11",
  "updatedAt": "2019-10-28T13:22:54.868Z",
  "devdoc": {
    "methods": {}
  },
  "userdoc": {
    "methods": {}
  }
}